:400000000080002011000000F9040000F904000080B500AF024B034A12681A6000F070FABC760040FA4600400800022300000876080003230000107608000423000028762B
:4000400008000523000030760500062300002070050007230000307005000823000060700500FE230000707020000A220000005120000B220000305110000C2200006051BD
:4000800010000D220000C0511000FE220000F051FF0F0F2200000000010010220000800F0004112200000014000A122200000040800013220000004C1000FE220000005034
:4000C00007001523000028522000FE230000706580001723000000188000182300008018800019230000001A80001A230000801A10001B230000105080001C230000004D25
:4001000080001D230000804D80001E230000804C80001F230000001B800020230000801B80002123000000198000FE230000801901000000010000000100000000480140C7
:4001400001000000004800400100000000200140010000000020004010B5054C237833B9044B13B10448AFF300800123237010BD3081FF1F00000000A04F000008B5064BC5
:400180001BB106480649AFF300800648036813B1054B03B1984708BD00000000A04F00003481FF1F0881FF1F0000000080B582B000AF03463960FB80012000F0FBFC00208B
:4001C000002100F08BFC0C4800F0BEFCFB88184600F032FE0120002100F080FC386800F0B3FC4FF4FA6000F08FFE012000F0E2FC0837BD4680BD00BFA44F000080B586B0D6
:4002000000AF0123FB8200F059FC02F0D3FDFB8A5A1CFA8218469749FFF7C8FF0020002100F05CFC3B1D00201946092202F082FF0346002B0BD0904800F086FC012000211C
:4002400000F04CFC3B1D184600F07EFC09E08B4800F07AFC0120002100F040FC884800F073FC4FF4FA6000F04FFEFB8A5A1CFA8218468449FFF79AFF0020002100F02EFC01
:40028000814800F061FC3B1D184600F0A7FF0346002B07D10120002100F020FC7B4800F053FC06E00120002100F018FC784800F04BFC4FF4FA6000F027FEFB8A5A1CFA82F4
:4002C00018467449FFF772FF0020002100F006FC714802F073FB0346002B03D16F4800F033FC09E06E4800F02FFC0120002100F0F5FB6C4800F028FC4FF4FA6000F004FEDF
:40030000FB8A5A1CFA8218466749FFF74FFF6748674902F071FE38610020002100F0DEFB3B69002B57D0634800F00EFC5F4800F00BFC0120002100F0D1FB5F4800F004FCC3
:400340004FF4FA6000F0E0FD012000F033FC0020002100F0C3FB386958490A2203F00DF80346002B0DD0564800F0EEFB4F4800F0EBFB0120002100F0B1FB524800F0E4FB02
:4003800009E0514800F0E0FB0120002100F0A6FB4E4800F0D9FB4FF4FA6000F0B5FD012000F008FC0020002100F098FB386902F05DFD0346002B03D1454800F0C5FB14E045
:4003C000444800F0C1FB0120002100F087FB424800F0BAFB09E0324800F0B6FB0120002100F07CFB3C4800F0AFFB4FF4FA6000F08BFD012000F0DEFBFB8A5A1CFA82184643
:400400003649FFF7D3FE0020002100F067FB2748334902F032FA0346002B0AD1314800F093FB0120002100F059FB2F4800F08CFB09E02E4800F088FB0120002100F04EFBD3
:40044000254800F081FB4FF4FA6000F05DFD012000F0B0FB0020002100F040FB244800F073FB0120002100F039FB224800F06CFBFEE700BFAC4F0000BC4F0000CC4F0000DE
:40048000DC4F0000EC4F0000FC4F00000C50000018500000205000002C500000305000004050000054500000605000000C81FF1F685000006C5000007450000080500000C4
:4004C0008C5000009C500000AC500000BC500000CC500000DC500000EC500000F4500000FC5000000C5100001851000028510000385100004851000080B400AFFEE700BF30
:4005000080B586B000AF224B7B61224B3B61204B7B6135E03B691B68FB603B695B68BB603B699B683B6000237B600CE0FB681A68BB681A60BB680433BB60FB680433FB60D7
:400540007B6804337B607A683B689A42EED13B69DB683B6000237B6008E0BB6800221A60BB680433BB607B6804337B607A683B689A42F2D13B6910333B617B69013B7B6132
:400580007B69002BC6D104F0DBFCFFF737FEFEE7010000008454000080B582B000AF174B174A1A60174B174A126842F400721A6000237B600FE07B68032B04D8124B7A6816
:4005C00053F8223000E0114B114A796842F821307B6801337B607B682F2BECD90D4B1B78DAB20D4B1A700D4B094A1A6000F0B8F90B4B00221A600837BD4680BD0CED00E0FE
:400600000004FA0514ED00E000000000F90400000080FF1FBC7600400481FF1F08ED00E00081FF1F80B584B000AFF860B9607A60F868B9687A6804F0A9FC1037BD4680BDCC
:4006400080B483B000AF0346FB71FEE780B483B000AF424B00221A60414B10221A70414B01221A70404B00221A70404B4FF484721A803F4B01221A703E4B03221A703E4B7D
:400680003E4A92B21A803E4B47F608021A803D4B00221A803C4B4FF480421A803B4B09221A703B4B0E221A703A4B14221A703A4B16221A70BFF35F8F384B01221A70BFF377
:4006C0005F8F00BF294B1B889BB2002BFAD100237B600CE07B68DA00314B1344314A796852F8212092B21A807B6801337B607B68202BEFD9BFF35F8F284B01221A70BFF35A
:400700005F8F00BF284B1B78DBB203F00103002BF8D100BF254B1B78DBB203F00103002BF8D100BF224B1B78DBB203F00103002BF8D100BF1F4B1B78DBB203F00103002BB2
:40074000F8D100BF1C4B1B78DBB203F00103002BF8D10C37BD465DF8047B70475081FF1F00760040107000401970004000780040027800400378004004780040280000006F
:4007800006780040047600400676004029700040397000406970004079700040147000400C78004054510000187000402870004038700040687000407870004080B582B0A5
:4007C00000AF434B1B78BB70424B00221A80424B58221A70414B02221A704FF0402308221A703F4BF3221A70394B03221A703D4B84221A703C4B05221A703C4B7B6006E000
:400800004FF4F07000F06CFB7B68013B7B607B68002B06D0344B1B78DBB203F02003002BEED02B4BBA781A70314B03221A70314B314A1278D2B21A70304B08221A80304B9C
:4008400041F251221A800023FB7019237B6014E0FB785B00DAB22B4B1B78DBB203F00103DBB21343DBB203F00303FB704FF4F07000F036FB7B68013B7B607B68002B02D046
:40088000FB78032BE4D17B68002B02D10320FFF7D7FE1D4B4FF480721A801B4B07221A701A4B00221A701A4B48221A70164B00221A70184B02221A70174B174A1278D2B26A
:4008C00042F00102D2B21A700837BD4680BD00BF984600408040004082400040004300400A4300400943004008430040A086010000420040A146004008010049224200406A
:40090000204200402542004004400040064000400840004001400040A243004080B483B000AF0B4B1B78FB710A4BFA7902F00702D2B21A70084BFA791209D2B21A70074BB9
:4009400044221A700C37BD465DF8047B704700BFCF0100496E5800406F5800407658004080B500AF72B6274B264A1278D2B242F00402D2B21A70FFF769FE234B224A1278C0
:40098000D2B242F00202D2B21A70204B1F4A1278D2B242F00202D2B21A701D4B1C4A1278D2B242F04002D2B21A701A4B194A1278D2B242F01002D2B21A70174817490822DA
:4009C000FFF730FE164817490822FFF72BFE164B154A1278D2B242F00802D2B21A70134B01221A70FFF7EAFE104B81221A70104B01221A70FFF792FF0E4805490E22FFF7EA
:400A000011FE80BDE84600400350014013500140A0430040C243004022510040B805004852510040C0050048224300400048004004000840B043004080B500AF282000F0EC
:400A400063FA032000F0C8F9052000F05DFA032000F0C2F90F2000F057FA032000F0BCF9012000F051FA022000F0B6F9052000F04BFA062000F09EF80E2000F09BF82C20B3
:400A800000F098F8082000F095F8012000F092F80C2000F08FF8032000F08CF8052000F033FA80BD80B500AF0C2000F083F8024B01221A7080BD00BF5881FF1F80B500AF71
:400AC000054B1B78002B04D1FFF7B6FF024B01221A70FFF7E7FF80BD5981FF1F80B582B000AF02460B46FA71BB71FB79032B27D801A252F823F000BF090B0000170B000081
:400B0000250B0000330B0000BB79803BDBB2184600F050F815E0BB79403BDBB2184600F049F80EE0BB796C3BDBB2184600F042F807E0BB792C3BDBB2184600F03BF800E027
:400B400000BF0837BD4680BD80B584B000AF78600123FB737B681B78BB730BE0BB7B184600F00EF8FB7B7A6813441B78BB73FB7B0133FB73BB7B002BF0D11037BD4680BD6B
:400B800080B584B000AF0346FB7100F02DF8FB791B09FB73FB7B184600F0E2F8FB7903F00F03FB73FB7B184600F0DAF81037BD4680BD00BF80B584B000AF0346FB7100F02F
:400BC00013F8FB791B09FB73FB7B184600F004F9FB7903F00F03FB73FB7B184600F0FCF81037BD4680BD00BF80B582B000AF4FF4CA737B60554B554A1278D2B222F07F02ED
:400C0000D2B21A70524B1B78DBB223F00F03FB704F4BFA7842F00F02D2B21A704D4B1B78DBB223F00F03FB704A4BFA781A704A4B1B78DBB223F00F03FB70474BFA781A7050
:400C4000424B424A1278D2B222F02002D2B21A703E4B3E4A1278D2B242F04002D2B21A70002000F073F9394B384A1278D2B242F01002D2B21A70012000F068F9374B1B7801
:400C8000FB70324B314A1278D2B222F01002D2B21A70002000F05AF9FB7803F00803FB702A4B2A4A1278D2B242F01002D2B21A70012000F04BF9254B244A1278D2B222F0B6
:400CC0001002D2B21A70FB78002B02D10A2000F03DF97B68013B7B60FB78002B02D07B68002BBDD1194B194A1278D2B222F04002D2B21A70154B154A1278D2B222F07F0276
:400D0000D2B21A70124B124A1278D2B222F00F02D2B21A700F4B1B78DBB223F00F03FB700C4BFA7842F00F02D2B21A700A4B1B78DBB223F00F03FB70074BFA7842F00F027D
:400D4000D2B21A700837BD4680BD00BF205100402251004023510040245100402151004080B582B000AF0346FB711A4B194A1278D2B242F02002D2B21A70164B154A12785B
:400D8000D2B222F04002D2B21A70002000F0DEF8104B104A1278D2B222F00F02D2B21A700C4B0C4A1278D1B2FA790A43D2B242F01002D2B21A70012000F0C8F8054B054AB3
:400DC0001278D2B222F01002D2B21A700837BD4680BD00BF2051004080B582B000AF0346FB71144B134A1278D2B222F06002D2B21A70104B0F4A1278D2B222F00F02D2B244
:400E00001A700C4B0B4A1278D1B2FA790A43D2B242F01002D2B21A70012000F097F8054B044A1278D2B222F01002D2B21A700837BD4680BD2051004080B586B000AF786039
:400E40000A23FB75FB7D07F118010B44002203F8102CFB7D013BFB751CE079681E4BA3FB0123DA0813469B0013445B00CA1AD3B23033BB75FB7D07F118010B44BA7D03F8EA
:400E8000102C7A68144BA3FB0213DB087B60FB7D013BFB757B68092BDFD879680E4BA3FB0123DA0813469B0013445B00CA1AD3B23033BB75FB7D07F118010B44BA7D03F8C8
:400EC000102CFB7D07F1080213441846FFF73CFE1837BD4680BD00BFCDCCCCCC000000000230800800F0058000BF013800467FF4FCAF7047EFF3108072B6704780F310883A
:400F0000704700BFAFF3008080B582B000AF786008E00C4B1B681846FFF7E2FF7B68A3F500437B607B68B3F5004FF2D8064B1B687A6802FB03F31846FFF7D2FF0837BD46E7
:400F400080BD00BF2481FF1F1C81FF1F80B582B000AF0346FB80FB88044A127802FB03F31846FFF7BDFF0837BD4680BD2081FF1FF0B505468DB0002800F0248100210C2248
:400F8000684601F093FB00210C2203A801F08EFB0021142206A801F089FB002328460B9301F02FFD00286C46C0F20C81284601F03BFD2846694601F0FDFD0028C0F20281B5
:400FC000824B019903F1480218681E46884202D80C339342F8D1B388019F0B96B7FBF3F7384600F039F9BDF808100446C900784301F045FC202C4FEA4000B3680CD0213055
:401000001A461446D218D11A8142FAD9241A5A1E22421DD0E4181BE01C4601301A460127D118824202D801370A46F9E70198B188C31A9A1AB2FBF1F0BDF808104001C900BB
:4010400001F01DFCB36840005F433F1AADF81070019B47F6A7721B1B934201D801220EE0B3F5803F01D2042209E0B3F5800F01D2062204E0564A934294BF0B220C228DF8FD
:401080002020544A019E0693079402F1500017681146B74202D808328242F8D1621E0879D2184B79ADF8000000FB03F1B4FBF1FC01FB1C4EADF824C0B2FBF1FC01FB1C212B
:4010C000BEFBF3FEB1FBF3F18DF821E08DF82610B4FBF3FEB2FBF3F103FB1E4403FB1122013401328DF822408DF82720ADF828C0ADF8023001F002FE0446002862D0364B1E
:4011000000271A8A002101F0D1FA84F8BE719DF8212004F5DE7384F8BF21BDF824009DF8221000F4407001F03F01033341EA90015970BDF824105A1C5170531C9DF820204C
:401140005E1C5A709DF82620731C7270BDF828109DF8272001F4407102F03F0242EA91025A70581CBDF8283043700799023001F0ACFB06F10800069901F0A7FB04F5FF707D
:401180004AF6552101F0ABFB2846394622463B4601F0DAFCB84214BF4FF0FF363E46204601F0C2FD76B94FF40073ADF80E300B9B0CA99B88284621F8243DCDF814D002F0A1
:4011C00079FC01E04FF0FF300DB0F0BDD8510000FF03FB00205200008091FF1F10B5002101F0D8FFBDE81040FFF7C2BE0C2802D0102805D102E001EB5100704748007047F8
:4012000088007047036840689B685B6AB0FBF3F0704710B5046D836CE4B199421AD3E318994217D2013B99420CBF4FF0FF31013172B190F836300C2B02D0102B05D102E07E
:401240000905090D03E089B201E021F070411160012010BD002010BD40F6F473984201D80C2070474FF6F473984294BF102020207047027F8368023902FB01307047431E1D
:40128000DBB21F2B13D92F2811D007D826280ED002D8222809D10AE02A3804E03A2804D33F2804D95B38022801D90120704700207047034638B30B2A01DD0B2200E0013AA8
:4012C00000201CE0082809D191F808C0BCF1200F0DD04FF02E0C03F801CB08E038B991F800C0BCF1050F02D1ACF1200C04E011F800C0BCF1200F01D003F801CB01309042DB
:40130000E0DB00221A7070472DE9F04788B005AE04460D463046114600229A469DF84490BDF84C80BDF8507000F01EFD08B1002413E020462946524600F00FFE044660B1EC
:40134000129B31460093109A4B46CDF80480029700F0C6FF284601F0FBFC204608B0BDE8F08710B59DF80C400394BDE8104000F0D9BD00002DE9F04F144E87B0109DDDF82C
:4013800048809DF84440376800950194CDF8088005937F68934682468946B84732680C4BDDF814C09A420DD060B9504649465A46634610951194CDF8488007B0BDE8F04FFC
:4013C000FFF7CFBF07B0BDE8F08F00BF2881FF1F7052000070B5C37A04460B7010300D4601F081FA064604F10E0001F07CFA40EA0640686004F1120001F075FA0004A860BF
:4014000004F1180001F06FFA064604F1160001F06AFA40EA0640E86004F11C0001F04AFA286170BD2DE9F845038A04460E46924687692BB907F118002146626900F064FC29
:4014400038465146224600F0E7FC0546204600F065FCD5B12B78C3B1E52BF1D095F80B80B8F10F0FECD018F00808E9D170692946B269FFF71EFF28463146FFF7ABFF238A97
:40148000404601332382BDE8F8854FF0FF30BDE8F885022201F0EABD2DE9F04790F8366005460C46304611469146FFF79FFEB5F81E80AB6A20FA08F89845824602D300200C
:4014C000BDE8F0876B8E05F118079844204641463A46FFF7DEFF204601F0EFFD18B14FF0FF30BDE8F087AA8BA168013A0AEA020A1FFA8AFA92450AEB01031AF8015001D0F6
:40150000013309E0204608F101013A46FFF7C1FF204601F0D2FDA36818780C2E45EA002009D0202E0FD15D7840EA05409D7840EA0560BDE8F08719F0010F02D00009BDE809
:40154000F0870005000DBDE8F08700002DE9F34190F83630144603FB02F7828B8846D200511E0F40D71B0546B7FBF3F7002618E00E4B93F88030022B05D12846214601AAC4
:40158000FFF747FE28B9284641462246FFF784FF0190019B0134A34205D10136B6B2013F1C46002FE4DC3046BDE8FC818091FF1F2DE9F34105460E46144698461F681CE081
:4015C000114B93F88030022B05D12846214601AAFFF71FFE28B9284631462246FFF75CFF0190737B0BB100240BE0AA6B019B0132934204D81BB1013F1C46002FE0D1C8F852
:4016000000702046BDE8FC818091FF1F73B504680E4623681BB9FFF7F5FD013039E0FFF7F1FD236998423CBF4FF0FF3323612369B3F1FF3F04D12268013323616261E38322
:401640002169E28B451A954234BF2B4613463BB16069C918C018D21A60612161E283ED1A0DB9284615E002AB43F8045D31466269A068FFF79DFF6061019B21690246C91A17
:401680004D19256123B9A0683146FFF75FFFE08301987CBD13B502AC44F8043D2346FFF787FF019B002B18BF00201CBD2DE9F0410746884615461E460024384641462A4631
:4016C0000123FFF7E7FF30B1BA6B0134944201D80546F2E7002406B134602846BDE8F0812DE9F74F04460D461E461746002A00F0B98090F836001146FFF778FDB4F81EA0F2
:40170000A36A20FA0AFA9A45814680F0AB80638E04F118089A44284651464246FFF7B9FE284601F0CAFC6B7B002B40F09B80A38BAA68013B09EA03091FFA89F303EB020995
:4017400026B9216C8F4203D2276401E0791C216494F8361010290AD0202911D1484601F0A9F831460746484601F0AFF84EE0484601F0B9F8B1B20746484601F0B0F845E05D
:4017800028460092019301F0E3FA009A019B17F0010F13F802B01BD00BF00F0141EA06119954A28B013A934202D009F1010309E028460AF101014246FFF76BFE284601F0F1
:4017C0007CFCAB681F7832093F0147EA1B171CE09E54A28B013A934202D009F1010309E028460AF101014246FFF753FE284601F064FCAB681A78310A02F00F0701F00F0123
:4018000022F00F024BEA07270A431A70284601F09FFA94F83630202B18D1B4F84620AAB9B4F84410284601F021FC284601F045FCA8684FF0FF3100F5F47001F046F8284627
:4018400001F086FA4FF00103A4F84630E36BB3F1FF3F09D00FB10133E3632EB1E36B013BE36301E0012000E00020BDE8FE8F6FF07043FFF735BF70B5036D04460E4693B109
:40188000002506E0AA1820463146531CFFF728FF0135236DA26C013B9D42F3D320463146AA18FFF7E4FF0023A3642365E364636570BD70B506460D461C460AB1FFF710FFF1
:4018C000304629462246BDE87040FFF7D0BF00002DE9F84504460E4615461F46002B36D01C4B93F88030022B31D190F8368011464046FFF77BFCB4F81CA00AF1FF3A2AEAD6
:40190000000A4FEACA0ABAFBF8FAAA44A8460EE0204631464246FFF7BFFD50B9A36C0BB9C4F84880E36C08F101080133E364D045EED9E36C5BB167653B685A6922B120463A
:4019400031462B46FFF7CCFE236D01332365BDE8F88500BF8091FF1F2DE9F8459846274B054693F880300F46022B1646846B19D1436D984503D0C36C0BB1FFF77CFFB8F11E
:40198000000F0FD06B6D43450CD12B6DEA6C9A4204D9AC6C1C1901332B652CE028463946FFF769FF012E04F1010A01D9564505D92E6C012E01D9564500D902263446284644
:4019C00039462246FFF768FD50B101345445F6D902240DE0284639462246FFF75DFD30B92846394622464346FFF772FF03E00134B442EFD300242046BDE8F8858091FF1F76
:401A0000F8B507460E461546FFF7A6FF044628B1384631462A462346FFF74BFF2046F8BDB2F1FF3F73B504460D4614D0561A013611D001F033FB084B00211A8AA06800F0D5
:401A400035FE022300936068A3682946324601F071F80023E3737CBD8091FF1F2DE9F84F984690F8363004460C2B0D4616465AD04FF0FF3AD1463CE094F836003146FFF729
:401A8000B5FBB4F81CB0678E0BF1FF3B10EA0B0BE38B1DD1D840013F3F1802222846394601F0E4FAA38BAA689B0852F80B1079B9013B0BF1040BF8D13BE04946284652469E
:401AC000FFF7AEFFB946BB46284601F044F9DA462946324601232046FFF7DCFD29460746324620460023FFF7FBFD2FB108F1FF383E46B8F1000FBFD1284649465246FFF735
:401B00008FFF13E02946324601232046FFF7C2FD29460746324620460023FFF7E1FD2FB108F1FF383E46B8F1000FEBD14046BDE8F88F0AF1010B5F45BFD1C5E72DE9F84579
:401B4000054601F0DBF8044608B90546D0E0284601F01CF8684E338A834208D338B10021284622460B4600F07EFF002804DA204601F0DAF80025BBE004F5FF7000F0B3FE34
:401B80004AF65523984240F0AD8004F10B0000F0AAFE10F47E4F074600F0A480338A8342C0F0A080237C022B40F09C8094F80D80B8F1000F00F096800021402205F118009A
:401BC00000F074FD04F1130000F08DFE064620B904F1200000F06EFE064604F1160000F082FE824680B904F1280000F07CFE10F08F0F77D104F1240000F05CFE824604F116
:401C00002C0000F057FEE862022385F83530C5F828A0AE6185F8348004F10E0000F063FE688604F1110000F05EFE95F835206B8E288602FB0A3A7A0992B2B0FBF2F25244D3
:401C4000AF832A62092301219940B94201D1EB8302E00133102BF6D108FB07F7B61AB6FBF8F6AE636F623046FFF7F6FA202818BFC5F82CA04FF0FF33202885F83600EB631C
:401C800032D104F1300000F02EFE00230146A5F844002246284600F0E6FE002822DB204600F008FE804604F5F27000F003FE074604F5FE7000F0FEFD104B984514D1104B41
:401CC0009F4211D10F4B98420ED104F5F67000F0F1FD286404F5F47000F0ECFDB04203D8E86301E0002500E00125204601F01CF82846BDE8F88500BF8091FF1F52526141BC
:401D000072724161000055AA00238B60837F202B01D102B942694A600A60704783680133836070472DE9F0410C46202105461F469DF818604FF0000800F0B8FC10E014F889
:401D4000080036B9E52804D1B8F1000F01D1E03802E000F020FDC0B205F8080008F10108B845ECDBBDE8F0812DE9F74506460D4608462849002A14BF92464FF0FF3A00F0B9
:401D8000CBFC804650B930462946022200F025FFB01C2021092200F089FC37E04FF0FF34002715F80780B8F1000F01D0574505D1B4F1FF3F08BF3C4664B925E04046FFF7BA
:401DC0005EFA08B3B8F12E0F08BF3C4601370D2FE7D119E0082C17DC3F1B042F14DC30462946082223464FF00008CDF80080FFF799FF0123611C009306F10800691803226D
:401E00007B1EFFF78FFF01E04FF001084046BDE8FE8500BF805200002DE9F74FD2F808B0436A4FEA4B18B8FBF3F8D368054698450E461446D2F8009001D20023D360B5F817
:401E40001EA0E368AAF1050A0BB9D4F804902BFA0AF7B9F1000F17D095F83420B8EB0303019206D04A4628463146FFF713FC814640B3494605F11800FFF7FBF9019B591E04
:401E800001EA0707C11906E02B8E43FA0AF39F4218D2E96A79183046C4F80090C4F80C80012201F0E3F8304601F007F950B9013000FA0AFAB3680AF1FF3A0AEA0B0B03EBE8
:401EC0004B1000E00020BDE8FE8F2DE9FF4107460E4601A811461A460A9D9DF82C40FFF743FFC8B9384631462A46FFF795FF8046A0B1037883B101A90B2200F0C7FB38B96E
:401F000098F80B3004EA0302A24201D1082B05D12846FFF703FFE5E74FF00008404604B0BDE8F0812DE9F04587B002AF04460E46154698469DF83CA039460E9A1830FFF77B
:401F4000E3FE204631462A4643460097CDF804A0FFF7BBFF07B0BDE8F0852DE9F04500F1180785B005460C46384669469246FFF7CBFE284621466A46FFF74EFF0646684676
:401F8000E846FFF7CBFE002E37D1BAF1000F02D12B8E002B35D12146009A00232846FFF785FB2146024600232846FFF729FD8046204601F07EF8B8F1000F22D0AA8B002190
:401FC000A06800F073FB38464146FFF752F995F8347000257E1E361808E031462046012201F044F8204601F01DF8013E01357B1BB3F1FF3FF1D1A66803E033780BB1E52B5D
:40200000B7D1304605B0BDE8F08538B504461A3000F069FC054604F1140000F064FC45EA004038BD2DE9F0451D4685B007460E462A6010465C21904600F026FC4FF0000AE3
:402040000446A04508D108F10108C5F8008040465C2100F019FC044694B1C8EB0403002B0EDD10220192103A0292384631464246CDF800A0FFF77EF970B1FFF7C6FF82461C
:4020800028685C2100F000FCA04604460028D8D10C9B0130C3F800A005B0BDE8F085F8B505460C461E461746DAB16FF01A031370084600F04DFE16B94FF47A7608E007F124
:4020C0001C0000F0F7FB6B6A5E1E3618B6FBF3F63846FFF79AFF2146024633462846FFF7BDFC607BF8BD00002DE9F04FD1F8008093B0D8F808700BAD044608930E464FF06E
:40210000FF333946284609920F939DF870A000F07DFE10AB009338462946224611ABFFF781FFD0B1F27A109B07920FAA00930292002338462946119A0193FFF71BF90446AA
:4021400080B1C37A13F0100F07D10D9BDDF82CB0C3EB00094FEA691906E0284600F0A0FF0125A3E083468146099B002B3CD0002C33D0524B5D6912E02B687BB1AA7A6AB1B3
:402180009A8B4A450AD19A695A4507D19B68BB4204D14FF6F772328100257EE0ED68002DEAD10DF12C0C6146384622460123CDF818C0FFF774FFDDF818C018B14FF0FF334C
:4021C00033816AE03E4B1B68DC6824B138466146109A0F9BA0472C4606E0BAF1000F03D1089A002A44D065E0089BEBB1CCB1E37A13F0010F0BD0079A12F0150F07D04FF667
:40220000FA733381BAF1000F01D1012500E000252046FFF7FAFE074604F11C0000F04AFB29E0BAF1000F45D0BAF1010F01D000251BE0ECB901F070FE214B20221B68019293
:4022400082B2000C03920490009402949D6838460BA9119A109BA84750B10D9ADDF82CB0C2EB00094FEA6919254628462F4602E00125002007464FF0FF33C8F81030C8F891
:4022800018B0A8F81C90079AC8F8040012F0010308BF1846C8F800707060B6F908300BA835EA230528BF012500F0FAFE284613B0BDE8F08F01255046DCE700BF8091FF1FE2
:4022C0002881FF1F70B505460C461A3089B200F006FB05F11400210CBDE8704000F0FFBA2DE9F0470446BDF824700D469146002120229A46BDF82860DDF8208000F0D6F9EC
:402300000B222046294600F068FC04F10E00394684F80BA000F0E3FA04F11000314600F0DEFA04F11600394600F0D9FA04F11800314600F0D4FA20464946FFF7C3FF04F15C
:402340001C004146BDE8F04700F0BFBA07B5426803460AB910460AE081680020009048681968DB6800F0C4FB003818BF01200EBD2DE9F047046805460F46A668FFF746F970
:4023800081468246002841D0D4F80080B8F1000F1BD14246304639462B46FFF7DDFA0246D8B11C4B6061C4F8108093F880302060022B07D030463946FFF759FA10B1012086
:4023C000BDE8F087B9F1010A20D03046394662692B46FFF7C1FA804628B94FF6FE732B810130BDE8F0870B4B93F88030022B05D03046394662694346FFF75BFA2369C4F875
:40240000148001332361BAF1010ADDE70020BDE8F08700BF8091FF1F2DE9F041836804460D4608460122A1699E8B00F01FFE2846B4F81C80AF6800F040FEF8B9013E06EA51
:402440004816B6B2BE1906F11C00616800F03DFA21683046FFF736FF01F05EFD0446A1B206F1160000F03BFA06F11800210C00F036FA2846BDE8F04100F01BBEBDE8F081F8
:402480007FB50668B0F90830B568C3B9C37A13F0110F14D02946684600F0B8FC30466946FFF7BAFF064B6C4693F88030022B03D128466946FFF7DFF9684600F0F1FD7FBD35
:4024C0008091FF1F03682DE9F04F9F68038995B001339BB2012B04460E46059201D90025CEE0394610AD0CA800F090FC3946284600F08CFC039626680023D6F808909A4625
:4025000009F118010791D9F82420059906924FF0FF32099308920A950291049320460CA9FFF726FF38B108A8FFF710FF5546002818BF00258FE03269069901324A43B9F889
:402540001CB063680BF1FF3BD21A0BEA030B029B0798934228BF134601937169FEF789FE99F83430B9F81C206768013BB7FBF2F703EA0707C719B9F81C300199CBEB0305AC
:402580008D4228BF0D469D4228D0BBF1000F03D1626873689A420FD00DF1400840463946002200F063FD404600F087FD20B14FF6F9725546228154E01298039958442A4650
:4025C0000DF1400800F009FB40463946002200F04DFD404600F026FD90B141E0099B089A9A1897420AD008A8FFF7B0FE002837D101230993039B08970B9301E001330993CA
:40260000029B03995B1B019A029363684919521BAA44ED186560736803919D42019207D91BB1194B93F880300BB9012104917560019A1AB101374FF0000B9CE7029B002BBA
:402640007FF46CAF08A8FFF781FE04995546002818BF002529B1304610A9FFF7DDFE00E05546059A954205D0B4F9083013B94FF6F87323810CA800F013FD10A800F010FD3D
:40268000284615B0BDE8F08F8091FF1F10B5002308E0C45C11F803C0013A0133644501D0012010BD002AF4D1104610BD70B5034602E003F8011C013A1C4622B103F003051C
:4026C0000133002DF5D193081ED04FF001354D4308E044F8105C44F80C5C44F8085C44F8045C043B032BA44604F11004F1DC1C46002603E04CF80650013B0436002BF9D118
:4027000002F003020CEB8404002302E0E154013A0133002AFAD170BD002310F803C0CA5C624501D0012070470133002AF5D110467047002300E00133C25C002AFBD118461A
:40274000704710B500230BE0C45C11F803C0644501D0012010BDC4186478013314B1013A002AF1DC002010BD10B5002302E0C454013A013303EB000C0AB9002308E0CC5C6A
:40278000002CF4D1F9E700210CF80310013A0133002AF8D110BDA0F16103192B98BF00F0DF0070472DE9F0470022ADF5047D0C460127082113468146009700F0CDFB0546DC
:4027C000002853D03A463B46002620461421009600F0C2FB074620B9284600F03AFB013E46E0284600F0ECF8804641463246384600F0BFFA384600F08CFC384631463246DA
:4028000000F0B7FA0DF10C0A284651464FF4007200F068FC064660B138465146324600F08FFDB04202D04FF0FF3603E0B8EB0008E8D10026284600F00CFB384600F009FBF3
:402840008EB983A93246484600F038FD83993246204600F011FD484601F0A0FA0146204601F0B8FA04E0204600F0C8FB4FF0FF3630460DF5047DBDE8F087FFF793BF013852
:402880004018B0FBF1F07047C9B203E00BB918467047013003788B42F8D1704742780178431C42EA01205A789B7842EA002043EA002070478378C27803EB0222437803EB49
:4028C0000222037803EB0220704703460A0A03F8011B42700A0C090E5A70997070470170090A417070474278037843EA02207047094A0A4BC11C10B5146821F00301186813
:402900000919814201D9002010BD11609A685868013220189A6010BD0492FF1F5C81FF1F08B5FFF7E5FF00B9FEE708BDFFF7E0BF30B1044A9368013B93600BB9024A13606C
:40294000704700BF5C81FF1F0492FF1F014B5860196070475C81FF1F38B50546FFF7E0FF002104462A46FFF7A1FE204638BD000010B5084CA37C0BB1002010BD4FF4007394
:40298000238201F0B9FAA37C012043F00103A37410BD00BF8091FF1F13B501A900F0FAFB044640B100F0C2FC032804D12046019900F06EFD01E04FF0FF301CBDFFF7ECBF21
:4029C00008B90138704703685868704708B583680BB10020984708BD08B583680BB10120984708BD10B504680079A468A04710BD37B59DF81850046800790095E468A047F3
:402A00003EBD08B5036800799B69984708BD036810B55B69044623B10079984708B1002000E00120607110BD10B5437904460BB9FFF7EDFF607910BDF7B504461F460E46AA
:402A40001546FFF7F1FF2046FFF7C6FF2A463146012320460097FFF7C5FF05462046FFF7B5FF2846FEBD10B504690919BDE81040FFF7E2BF2DE9F341044615461F460E4626
:402A80009DF82080FFF7D0FF2046FFF7A5FF2B4631463A462046CDF80080FFF7A3FF05462046FFF793FF2846BDE8FC8130B504699DF80C5009190395BDE83040FFF7DABF07
:402AC000F7B5044615461F460E46FFF7ADFF2046FFF782FF0023009331462B463A462046FFF786FF05462046FFF770FF2846FEBD30B504699DF80C5009190395BDE83040FD
:402B0000FFF7DEBFF7B5044615461F460E46FFF78BFF2046FFF760FF0123009331462B463A462046FFF764FF05462046FFF74EFF2846FEBD30B504699DF80C5009190395C5
:402B4000BDE83040FFF7DEBF73B504460E461546FFF76AFF2046FFF73FFF00232A460093314601332046FFF743FF05462046FFF72DFF002D14BF4FF0FF3000207CBD10B5C5
:402B800004690919BDE81040FFF7DEBF30B5054685B0FFF749FF2B6828791C694FF47B71002201ABA04708B1002001E0BDF80C0005B030BD70B506460D46FFF735FF336818
:402BC00030791C694FF47B7100222B46A047002814BF4FF0FF30002070BD11F0030F70B584460B4632D110F0030F2FD195100446AC4611E053F8106CACF1040C44F8106CE2
:402C000053F80C6C44F80C6C53F8086C44F8086C53F8046C44F8046C10341033BCF1030FE8D8AB081B0100EB030CCB1815F003050AD0284600215C584CF801400431013878
:402C4000F9D1AD00AC445B1902F0030213F0010F19462FD11CF0010F60462BD15410254610E031F8086C043D20F8086C31F8066C20F8066C31F8046C20F8046C31F8026C4C
:402C800020F8026C08300831032DEAD8A108C9005B1814F003048C440AD0204600215D5A2CF8015002310138F9D16400A4441B1902F00102614610E013F8040C043A01F84A
:402CC000040C13F8030C01F8030C13F8020C01F8020C13F8010C01F8010C18460433032A8C4601F10401E7DC32B10023C15C0CF8031001339342F9D170BD0000094B10B5C3
:402D0000D8689A68002308E0114652F8084B1CB901230B60486810BD01338342F4D3002010BD00BF8091FF1F084B30B50022DC689B6808E05D6819460833854202D1002331
:402D40000B6030BD0132A242F4D330BD8091FF1F01230373704700230373704710B1002282720260704718B1027B0AB1013A02737047034608B901387047012A03D0022AE4
:402D800003D062B105E0426801E002685268891805E04FF6FD7202814FF0FF3070475A688A4201D1002070474FF0000259601A810020704738B5FFF7DBFD20B3124C4200E6
:402DC000E2600001FFF7C8FD238AA060E0685843FFF7C2FDA568E168228A002304E005EBC3046060013380188B42F8D31020FFF7B3FD054C60612820FFF7AEFDA37CA061BB
:402E000043F00203A37438BD8091FF1F38B510220D4600210446FFF749FCFFF76FFF08B9013038BDA0604FF0FF33002065602360A07338BD38B5837A044643B10568FFF750
:402E40001FFB2846FFF78FFF2046FFF787FF002038BD08B50368827A03B19B6822B11BB1FFF7E8FF002008BD012008BD08B901307047FFF7EEBF000038B5104B9C69217BF8
:402E800059B921606160A16004F110001422FFF70DFC237B013323730DE0656A45B92820FFF744FD606218B129462822FFF7FEFB646A002CE3D1204638BD00BF8091FF1FB8
:402EC00038B50E4B5C69A17AE56839B920461022FFF7ECFB0123A372E5600CE045B91020FFF724FDE06018B129461022FFF7DEFBE468002CE7D1204638BD00BF8091FF1F57
:402F00002DE9F74F06460020884691469B469DF830A09DF83470FFF7AFFF054608B9044610E0FFF7CDFF044660B180F80B900560AE604046214652463B46CDF800B0FFF7A7
:402F4000D3F830B12046FFF709FF2846FFF70BFF00242046BDE8FE8F2DE9FF410C461F4604A9002341F8043D15469DF8286000F011F98046B8B1039B0BB11B789BB1404660
:402F800000F0D4F900280EDD14F0150F01D0032809D1039939B1404622462B4600970196FFF7AEFF00E0002004B0BDE8F08100002DE9F3410646884600240E4D404655F80D
:402FC0003410E700FFF7A8FB10B9002C04DA0DE001340F2CF1D109E07D19A87929790090EA796B793046FFF7B7FF00E00020BDE8FC8100BF84520000FFF7DABF37B500248A
:403000001021224601230094FFF7A6FF054608B9013806E00068FFF7A6FE2846FFF79EFE20463EBD10B5437B04460BB1012010BD40682168A268A37BFFF7A1FD10B10120D0
:40304000607310BD207310BD10B5437B044663B9037B53B140682168A268A37BFFF78FFD08B1012363730023237310BD036870B5994204460D46164607D0037B0BB1FFF766
:40308000E3FF00232560A673E37370BD10B50446FFF7ECFF0123E373237310BDFFF7D4BF10B50446FFF7D0FFA068BDE81040FFF73BBE01230373FFF7C7BF10B50446407BF4
:4030C00008B1012010BDE37B5BB960682168A268A37BFFF7C8FC10B10120607310BD0122E27310BD30B592B188B1857A046875B16CB190F80BC01CF0080C04D14FF6FB72B4
:403100000281604630BDBDE8304000F01FBD002030BDC37A13F0150F02D14FF0FF30704700F0DEBD08B5436813B94FF0FF3008BD984708BDF8B50C4617460023144D01E0D8
:40314000ED6D01338342FBDB2B6828791B68984706460CB92046F8BDFFF7EBFA0530B84214DC22460020335C013223540130315C0029F8D113464FF03A0C03F801CB2C79AF
:4031800003303034547083F801C09970F8BD00BF9C91FF1F2DE9F0470F463A210646FFF773FB044610B93446174D27E00378C6EB000A5BB114F8013F43B162783A2A05D175
:4031C000A3F130085FFA88F8023401E04FF000080D4D2B6828791B6898478146FFF7A9FA504508D1484631465246FFF7AAFA10B92B79434502D0ED6D002DEAD107B13C607A
:403200002846BDE8F08700BF9C91FF1FF8B5174C064694F85B10E56D69B9602201272046FFF744FA84F85B70E5653046FFF77AFF00280EDA18E045B96020FFF777FBE06546
:4032400018B129466022FFF731FAE46D002CE0D10AE0074B2660DA6F0132DA670323207184F85B7084F85A302046F8BD9C91FF1F8091FF1FFFF7CABF30B585B0019103A956
:403280001446FFF787FF0546A0B100F04FF8032810D1012C03D0022C05D014B10AE0082302E0022300E004232846039901AA00F021F901E04FF0FF3005B030BD73B50C4644
:4032C00001A91546FFF766FF0646A8B100F02EF810F0010F10D0012D03D0022D05D015B10AE0082302E0022300E0042330460199224600F058F901E04FF0FF307CBD38B5A7
:4033000004460D46FFF77DFB08B9013838BD2046FFF78AFB204600F0CDFD2046FEF70EFC08B184F8595094F8590038BD90F8593023B990F85A1009B1FFF7E1BF1846704731
:4033400030B51346BAB1B0B10268857A0AB1946804B900247DB172B16CB1C27A12F0100204D14FF6FA730381104630BD1A46BDE83040FFF7A7B8002030BDFFF7E1BF0000C9
:403380002DE9F04F8BB01C4605460992079100F0C3FD00228246214628461346FEF730FBDDF81CC0804608B9013867E0354B1FFA8AFB1B684FEA1A4A4FF0100900260090B1
:4033C000CDF804900296CDF80CB0CDF810A09F68284621466246099BB847002846D02046FFF7B6FC2046FFF759FEAA8B3146A068FFF75CF9414605F11800FDF73AFF089067
:40340000089920460122FFF741FEA768424638464B461D490096CDF804B0CDF808A0FEF75FFF099A07F1200018494B460096CDF804B0CDF808A0FEF753FF2046FFF72EFE5A
:40344000A0683146AA8BFFF731F908E0089B2046F1180122FFF70AFE2046FFF7E3FD95F8343001369E42F1DB002007E02846214642460123FEF7F2FA6FF001000BB0BDE824
:40348000F08F00BF2881FF1F2C5300003853000070B58AB0054604AC0E4620462946FFF7B5FC09AB009328462146324608ABFEF7B9FDB8B10898FFF73CF998B1099B284652
:4034C000009321460023089A01930293FDF752FF064638B928460899099A2346FFF750FF002801DA4FF0FF3604A8FFF7D9FD30460AB070BD2DE9F0418AB0064604AD88466A
:403500002846314617461C46FFF780FC08AB009330462946424609ABFEF784FD20B92846FFF7BEFD01243AE0089B2946009330460023099A01930293FDF71CFF054608B93C
:40354000012429E0012C0AD1C27A3B7812F0100F14BF43F0100303F0EF03C37218E039680E0C042C89B209D0082C0DD0022C0FD10E30FFF7B4F905F1100006E01630FFF7B3
:40358000AEF905F1180000E012303146FFF7A7F904A8FFF7DDFB002404A8FFF781FD20460AB0BDE8F0812DE9F0418AB0064604AD0F462846314614469846FFF727FC08AB77
:4035C0000093304629463A4609ABFEF72BFD20B92846FFF765FD012429E0089B3046009329460023099A01930293FDF7C3FE08B9012419E008F1FF38B8F1070F13D8DFE8F6
:4036000008F0040712091212120DC37A23700AE00E3000E01630FFF74DF903E01230FFF762F900042060002404A8FFF739FD20460AB0BDE8F08100002DE9F04F8FB08B463E
:403640009DF86010069207930991BDF86420BDF86C309DF8701005460B92BDF868800C930D91FFF7CEF90028C0F2DF81002385F85930FFF743FB0446002800F0D481AC4B16
:403680001B8A4345C0F0CF81B8F1000F00F0CB81079A06994FEAC803002A08BFFF220A93A44B0792002908BF3F2102220C9F144606912A4684461D460C996B698F422E7CCD
:4036C00000D13FB9202E03D0DDF82CA0012708E0374604E0202E02D0DDF82CA001E04FF0000A41464FEA4A1003920593CDF810C0FFF7C5F8C7EB0B090999C0EB090999FB9B
:40370000F1F070430A99FFF7BAF809994000C0EB090999FBF1F906FB09F00A99FFF7AFF8039A0890059BDDF810C02CB940F6F471894508DD894601E0994504DA013C083DB8
:40374000B4F1FF3FB8D164466046002115464246FEF7ACFF6FF01603204600F8033B08227549FFF701F804F10B004146FFF7B7F8099A04F10E0062733946FFF7B0F8022315
:40378000237404F111005146FFF7A9F8BBF5803F06D204F113001FFA8BF1FFF7A0F804E004F120005946FFF790F86FF00703637504F118000699FFF792F804F11A0007999A
:4037C000FFF78DF804F11C002969FFF77EF8202E6FF07F031DD084F82430A93384F8263004F127005549FFF770F8089B04F1160099B2FFF774F8524904F12B000B22FEF755
:40380000B3FF504B504904F136000C2E18BF194624E084F84030A93384F8423004F124000899FFF752F804F12C000221FFF74DF804F130000121FFF752F8062384F8323046
:4038400004F143003D49FFF740F83D4904F147000B22FEF789FF3D4904F152000822FEF783FF04F5FF71084607914AF65521FFF736F80021284622460B46FFF780F900287A
:40388000C0F29F80202E08D10621002328462246FFF775F90028C0F29480002142462046FEF704FF089A0223520000932846394623460692FFF73EF90028C0F282806FF095
:4038C0000703237007330C2E6370A3700DD0202EE3700AD1201D6FF07041FEF7F6FF04F108006FF07041FEF7F0FF0223284639462246FFF744F9002863DB089B2846D9193A
:4039000022460223FFF73BF900285ADB002142462046FEF7CBFE069AD119BAF1000F17D04FEA4A12012300932846B2FBF8F213E08091FF1F44530000D0530000674523017E
:403940005C530000D9530000E2530000EB5300000123099A009328462346FFF7EBF800282FDB202E31D1424600212046FEF79EFE20462F49FEF7A9FF04F5F2702D49FEF78C
:40398000A4FF04F5F47009F1FF31FEF79EFF032104F5F670FEF799FF07984AF65521FEF79EFF0121002328462246FFF7E8F8002807DB0721002328462246FFF7E0F8002842
:4039C00003DA2046FFF7B0F92DE02B6933B30D9B23B30021284622460B46FFF72DF8E8B90C2E94F8C23102D0102E06D002E04FF0010B09E04FF00B0B06E0BBF5803F34BF8A
:403A00004FF0040B4FF0060B5B4507D0002184F8C2B1284622460B46FFF796F82046FFF783F9002001E04FF0FF300FB0BDE8F08F5252614172724161F0B58BB007AD0446E2
:403A400000210C222846FEF731FE204600F032FA20462946FFF7AEF823690BB163690893089911B94FF0FF3020E0BDF81E20BDF81C30BDF82460002000E001300C4D4FEAFA
:403A8000C00C05F1240757F83070B942F5D80CEB050090F82850408D00950190002003900130049020460296FFF7C6FD0BB0F0BD4453000030B504468BB00D4600292FD060
:403AC000FEF79FFF002802DA4FF0FF302AE0204600F0F0F9AA6807AB22B920461946FFF769F802E007CA83E80700236923B16369089A9A4288BF08932978BDF81E200091E7
:403B00006988BDF81C300191BDF8241020460291A9880391A97904910899FFF78DFD01E0FFF78AFF0BB030BD07B5426803460AB910460AE081680020009048681968DB68BB
:403B4000FEF7B4FF003818BF01200EBD2DE9F04F0368B0F9085095B0044689469F68002D40F0B78041685868814203D34FF0FF312181AFE0411A8A4228BF0A46029222B979
:403B80004FF0FF322281029DA4E01B68002B00F0A080394610AE0CA8FFF738F939463046FFF734F9D4F800B0029ADBF80870AA4607F118030693796A4FF0FF33059109955A
:403BC00008930A96049220460CA9FDF71FFD00286ED1DBF81030059901334B43626804999B1A994228BF19460391BB8BDBF81410013B134006980193FDF73BFBF98B6568A5
:403C000097F8342035FA01F1013A019B02EA0101CDF81CB000EB01081E46BB46BBF81C30039A9D1B954228BF15469D4211D010AF384641460022FFF719FA3846FFF73DFA0A
:403C4000002835D11299484671182A46FEF7C5FF12E0099B089A9A1890450BD008A8FFF763FF00283AD10123CDF820800993CDF82C9001E001330993049B03995B1B0493B7
:403C80006368A9445B19491BAA446360039103D008F101080026C1E7049A5F46DDF81CB0002A90D108A85546FFF73EFFB0B900E05546029B9D4205D0B4F9083013B94FF674
:403CC000F97121810CA8FFF7EBF910A8FFF7E8F900E00025284615B0BDE8F08F0025EBE72DE9F04FD0F8008085B0D8F80860044631466846FFF78AF86268D8F804309A42AD
:403D00002DD22768736A694603EB02097A68B9FBF3F903EB020BBBFBF3FB3A6809F1FF333046FDF7B7FC82466946524601233046FDF7B0FCC9EB0B0B02465B466946304643
:403D4000FDF78CFE304669465246FDF790FD4FF00003C7F814A0C7F81090FB830EE002D84FF0FF350EE0013A626020466946FEF7FFFA636805460133636018B963680025FE
:403D8000C8F8043040466946FEF746FB6846FFF787F96C46284605B0BDE8F08F37B54FF0FF3469468DF80740FFF7F4F9054670B1FFF7BCFA10F0010F09D0284600990DF1C5
:403DC00007020123FFF7EFFB08B18DF807409DF807003EBD1FB58DF8071003A9FFF7DAF9044658B1FFF7A2FA032807D1204603990DF107020123FFF77DFB01E04FF0FF30E3
:403E000004B010BD0378E92B01D101207047EB2B01D0002070478078902814BF00200120704708B500F5FF70FEF75DFD4AF65523984214BF0020012008BD01EB001000F5C3
:403E4000E370FEF737BDF0B50D4685B01446064658B352B300210B46FEF7EEFD002824DB2046FFF7DEFF00B32046FFF7CBFF10B10024274616E02146FFF7DFFF074604F5CF
:403E8000E570FEF717FD01A904463046FEF792FE5CB157B1E219FF23120AB2FBF3F2029B9A4202D81DB12C6001E04FF0FF37384605B0F0BD73B50446FEF768FE0646FEF7E4
:403EC0001DFF0C4B05461B8AB3420DD366B1204601A92A46FFF7B7FFB0F1FF3F04D02061019B6361002400E0FF242846FEF71CFF60B27CBD8091FF1F80B500AF04484FF421
:403F00008051FEF723FD0348FFF7B4F980BD00BF6881FF1F3C54000080B485B000AF0023FB810023BB8100237B8101233B810123FB800023BB80FB895B089BB21A46BB8930
:403F40005B011A447B89DB0213443B603A89FB885B011A44BB885B0213441B043A6813433B603B6818461437BD465DF8047B70474FF6FF7070470000014B1868704700BF84
:403F80006891FF1F004870475C54000000F094BD37B501220DF10701054600F0A5FD9DF80740FF2C14BF0A240724284601220DF1070100F099FD9DF80700FF2803D1013CE4
:403FC000E4B2002CF1D13EBD37B50469857828460DF10701012200F087FD9DF807300BB1002003E0013CF2D14FF0FF303EBD37B54FF0FF3305460C468DF8073006E02846E3
:404000000DF10701012200F089FD013C002CF6DC3EBD000038B5094C2368032B02DD4FF0FF3509E0DDB2013323601420FEF794FC04EB850460608570284638BD6891FF1FCF
:4040400008B5034B4FF400711B68984708BD00BF2C81FF1F4FEAD20CACEBD103CCF10F0C10B501336044002410F801CB013B4CEA0424F9D101F00703511A02228A40DC400D
:40408000013A04EA020010BD7FB5130E85788DF80530130C01F03F018DF80630130A41F040018DF8073000238DF808208DF804101A4601A911F802C000215B00DBB283EAF2
:4040C0000C0E1EF0800F18BF83F009030131082904D04FEA4C0C5FFA8CFCEEE70132052AE7D15B0043F001038DF809308678C4680122304603A900F0F7FC9DF80C30FF2B7E
:4041000004D00CB9FF2009E0013CF1E7284601A9062200F003FD2846FFF73AFF04B070BDF7B5847806460F4620460121FFF75FFF204600F00DFC304609210022FFF7A4FF3C
:404140008DF8070028BBF6680546012220460DF1060100F0C9FC9DF80630FE2B06D0FC2B04D00135ADB2B542EFD112E00DF1070520463946102200F0B7FC29462046012225
:4041800000F0B2FC29462046012200F0ADFC002500E0FF25204600F0EFFB20460121FFF726FF2846FEBD00002DE9F04F9B46494B89B003EB800305925C684A020291039258
:4041C0004FF00309029AA578E678039B2846022E08BF13461E4600F0CFFB01212846FFF706FFBBF1010F0CBF4FF0110A4FF0120A284600F0ADFB204651463246FFF744FF68
:40420000002851D1059F5E46A378E268B44604924FF000081E460FE0012230460DF11F01CDF804C000F060FC9DF81F20DDF804C0FE2A05D008F10108049B9845ECD333E017
:40424000284639464FF40072664600F04DFC0222284607A900F048FC9DF81C30384601939DF81D80FFF7ECFE4FF6FF729042019B0CD048EA0328404508D0BAF1120F13D1D2
:4042800020460C210022FFF7FFFE0DE0013E02D007F50077B8E7BAF1120F07D120460C213246FFF7F1FE01E04FF0FF36284600F063FB28460121FFF79AFE3EB1B9F1000FDB
:4042C00002D009F1FF397DE74FF0FF36304609B0BDE8F08F6891FF1F2DE9F04F99464C4B87B0029203EB80039DF840205D68009103926B78002B40F085804B020193032743
:40430000009BAC78EE78019A2046022E08BF1A46164600F031FB01212046FFF768FEB9F1010F0CBF4FF0180A4FF0190A204600F00FFB284651463246FFF7A6FE8DF8170049
:40434000002850D120460121FFF751FE029ECB46B8463046FFF774FE0DF11707BAF1180F0CBFFE23FC2301228DF817308DF81500030A394620468DF8143000F0CFFB20463D
:4043800031464FF4007200F0C9FB0222204605A900F0C4FB01222046394600F0A5FB9DF8173003F01F03052B1CD12846FFF70CFEC0B9039A0AB906F50076BBF1010BC8D187
:4043C000BAF1190F474611D106A96FF00203204601F8013D012200F0A1FB2846FFF7F4FD20B100E047464FF0FF3600E00026204600F0C2FA20460121FFF7F9FD26B10FB1F2
:40440000013F7DE74FF0FF36304607B0BDE8F08F6891FF1F2DE9F04F877887B0044638460D4600F095FA20463A210022FFF72CFE064638B1384600F09FFA38460121FFF702
:40444000D6FD58E00DF1140804224146384600F04BFB4046FEF722FA8046384600F08CFA01213846FFF7C3FDB8F1000F28F07F02B8BF4FEA987BD2B240F272634FEA1828F7
:40448000B8BF0BF0010B1FFA88F8002A14BF1A460022012111EA080F05D10136F6B24900102E89B2F6D140F27260824233460DD06422724302F5FA6208E011EA080F07D077
:4044C00049000133013689B2DBB2F6B20F2EF4D964214B434FF6FE7103F5FA6302EA01014FF6FC72384603EA020200F0B1FA10F0FF0F40F099804FF0FF3092E028467E2183
:404500007F22FFF7A7FD8246EB78DFF82C8103F0030203F0780308EBD30358F822101B7C3846594389B200F051FA0646002877D06B7803F00702DB1003F00F0308EB8202B8
:404540004344126A93F810800292B8F1000F67D0A978284603911C221A21FFF77BFD0190BAF1000F1FD1502153222846FFF772FD4FF0010909FA00F92F2131222846FFF750
:4045800069FD1FFA89F982463E21284649224FEA5929FFF75FFD0AF1020A09FA0AF9013000FB09F910E0BAF1010F01D0012038E0284630214522FFF74DFD4FEA8029BBF109
:4045C000000F01D00223E37008FB06F2029B0399B2FBF3F2642303FB01225A437343D208DB089A4294BFE260E360FA235E43019BF6089A400C21B24294BF22612661284613
:404600000D22FFF727FD0546384600F0C9F94FF4007128436070A180C4F80890002000E0FF2007B0BDE8F08FE378A778012B3FF465AF4FF0000A67E7F4530000F0B58578EB
:4046400087B004464FF4C871284600F0BFF9B0F5C87F00F2CC804CF25033E3600026284600F08AF90A212846FFF7C1FC624B93E8030001902846ADF8081000F069F9062245
:4046800001A9284600F04AFA2846FFF781FC0746284600F071F901212846FFF7A8FC17F0010F03D10136052ED9D1A0E0284600F04FF9082120464FF4D572FFF7E5FC10F079
:4046C000040F52D0284600F057F9A5784FF4FA66284600F03DF9002237212046FFF7D4FC28460121FFF783FC292100222046FFF7CBFC0746284600F03FF928460121FFF7E0
:4047000076FC17B90123E3701EE017F0040F01D1013EDDD14FF4FA66284600F019F9012100222046FFF7B0FC0746284600F024F928460121FFF75BFC0FB9E77004E0012FB2
:4047400055D1013EE8D152E001AD20462946FFF7E7FC00284BD120462946FFF75BFEC0B2002844D10123237043E00422A07805A900F0BAF9284600F0FFF89DF81730AA2B07
:4047800035D19DF8163003F00F03012B2FD1A5784FF4FA66284600F0DBF8002237212046FFF772FC28460121FFF721FC29214FF080422046FFF768FC0746284600F0DCF885
:4047C00028460121FFF713FC0FB1013EE2D101AE20463146FFF7A4FC48B90125E57020463146FFF717FEC0B208B9257001E04FF0FF3007B0F0BD00BF3454000010B5084B12
:4048000003EB80035C6823783BB9FFF7BFFB20B12046BDE81040FFF711BF4FF0FF3010BD6891FF1F38B51D46154BA1F57B7103EB80035C68072918D8DFE801F00A17171732
:4048400004041719204600211422FDF72FFF0CE0237833B92046FFF7F1FE10B14FF0FF3038BDA3882B81A3686B60002038BD2046FEF75EF8024B00201A68013A1A6038BD33
:404880006891FF1F80B582B000AF0346FB71FB79002B12D1134B1B78002B0DD1114B01221A7000F04BFA3B20012100F061FA00F02BFA00F095F912E011E00A4B1B78002B0B
:4048C0000CD1084B01221A7000F038FA3B20012100F04EFA00F018FA00F082F900BF0837BD4680BD7C91FF1F80B584B000AF02460B46FA71BB71FB79002B11D1BB791846D3
:4049000000F0AAF900BF00F087F9034603F00103DBB2002BF7D000F0B9F90346FB7311E0BB79184600F098F900BF00F075F9034603F00103DBB2002BF7D000F0A7F90346E4
:40494000FB7300BFFB7B18461037BD4680BD00BF80B582B000AF0346FB71FB79002B03D1002000F0CFFA03E0002000F0CBFA00BF0837BD4680BD00BF80B582B000AF0346C5
:40498000FB71FB79002B03D1012000F0BBFA03E0012000F0B7FA00BF0837BD4680BD00BF80B485B000AF0346FB71FB79002B02D10023FB6002E00023FB6000BFFB68184613
:4049C0001437BD465DF8047B704700BF80B584B000AF02460B46FA71BB80BB88B3F5C87F03D24FF4C873BB8006E0BB88B3F57A6F02D94FF47A63BB80BB885B00FB81FB897A
:404A000045F6C052B2FBF3F39BB2BB60FB79002B0CD100F093F9BB689BB2013B9BB21846012100F0A5F900F06FF90CE000F086F9BB689BB2013B9BB21846012100F098F982
:404A400000F062F900BFBB8818461037BD4680BD80B485B000AF13460246FA710A46BA807B80FB790033032B0FD8BA8840F6E4439A4207D87A8840F6E3439A4202D901230C
:404A8000FB6012E00023FB600FE0BA8840F6E4439A4207D87A8840F6E3439A4202D90123FB6001E00023FB6000BFFB6818461437BD465DF8047B704780B584B000AF034635
:404AC000FB71FB791846FFF7DDFEFB790033032B02D80223FB6002E00223FB6000BFFB6818461037BD4680BD90B585B000AF0346B9607A60FB73BC68631CBB60FB7B1846AA
:404B0000FF21FFF7F1FE034623707B68013B7B607B68002BEFD11437BD4690BD80B584B000AF0346B9607A60FB73BB685A1CBA601B78FA7B10461946FFF7D6FE7B68013B16
:404B40007B607B68002BF0D11037BD4680BD00BF80B500AF074B0F221A7000F0A7F800F05BF800F069F8044B00221A70034B00221A7080BD8B650040896500408A65004072
:404B800080B582B000AFFCF7B5F90346FB71114B104A1278D2B242F02002D2B21A700E4B0D4A1278D2B242F01002D2B21A700B4B0A4A1278D2B242F01002D2B21A70FB79D5
:404BC0001846FCF79BF900F01BF800F01FF80837BD4680BD9B650040996500409A65004080B500AF054B1B78002B04D1FFF7B0FF024B01221A70FFF7C3FF80BD7D91FF1F03
:404C000080B400AFBD465DF8047B704780B400AFBD465DF8047B704780B483B000AF054B1B78FB71FB7918460C37BD465DF8047B704700BF6965004080B483B000AF054B57
:404C40001B78FB71FB7918460C37BD465DF8047B704700BF6A65004080B483B000AF0346FB7100BF074B1B78DBB203F00403002BF8D0054BFA791A700C37BD465DF8047B74
:404C8000704700BF696500404A65004080B483B000AF054B1B78FB71FB7918460C37BD465DF8047B704700BF5A65004080B582B000AF01E0114B1B78114B1B78DBB203F066
:404CC0002003002BF6D1FCF715F90346FB710D4B0C4A1278D2B242F00102D2B21A70094B084A1278D2B222F00102D2B21A70FB791846FCF703F90837BD4680BD5A650040D4
:404D00006A6500409A65004080B400AF094B094A1278D2B242F00102D2B21A70064B064A1278D2B242F00102D2B21A70BD465DF8047B7047A2430040B243004080B400AF8D
:404D4000094B094A1278D2B222F00102D2B21A70064B064A1278D2B222F00102D2B21A70BD465DF8047B7047A2430040B243004080B584B000AF02460B46FA807B7100F09A
:404D8000B1F80346FB7300F0A1F80346BB81FA88BB899A4200F08780444B1B78DBB203F00103FB72FB7B002B20D1BB89002B02D0FB88002B1AD1BB89002B0BD13C4BFA8819
:404DC0001A803C4B3B4A1278D2B222F04002D2B21A7068E0374B374A1278D2B242F04002D2B21A70324BFA881A805CE0FB7A002B33D0314B00221A70304B01221A70304B7F
:404E000000221A702F4B2F4A1278D2B202F07F02D2B21A70274B1B78DBB203F00803002B02D0FB88002B18D1274BBA891A80224B07221A7000BF204B1B78DBB203F0010370
:404E4000002BF8D1194B194A1278D2B222F00102D2B21A70184B00221A70144B1B78DBB203F00103002B13D0174BFA881A80124A7B79002B01D0032300E00123137000BF7D
:404E80000D4B1B78DBB203F00103002BF8D10AE0074BFA881A80054B044A1278D1B2FA7A0A43D2B21A701037BD4680BDA243004080400040824000400140004010400040FE
:404EC00014400040084000400240004080B400AF034B1B889BB21846BD465DF8047B70478040004080B400AF054B1B78DBB203F00703DBB21846BD465DF8047B704700BF7F
:404F00008240004080B485B000AF0346FB710B4B1B78DBB223F04003FB73084BFA799201D2B202F04002D1B2FA7B0A43D2B21A701437BD465DF8047B704700BF505100408B
:404F400070B50E4B0E4D0024ED1AAD101E46AC4204D056F8242090470134F8E700F080FA084D094B0024ED1AAD101E46AC4204D056F8242090470134F8E770BD6C54000042
:404F80006C540000745400006C54000010B50023934203D0CC5CC4540133F9E710BD000000000000537465702300000053442043415244204E414D4500000000534420630D
:404FC000617264206E616D653A0000004661696C656420746F2067657400000053442063617264206E616D65000000005344204341524420464F524D4154000053442063F1
:4050000061726420666F726D617400005375636365656465640000004661696C656400004449524543544F5259000000446972002244697222206372656174656400000097
:405040004661696C656420746F20637265617465000000006469726563746F727900000046494C45000000007700000046696C6520000000776173206F70656E6564000062
:40508000303132333435363738390000223031323334353637383922000000007772697474656E20746F2066696C65004661696C656420746F207772697465006461746195
:4050C00020746F2066696C650000000046696C652077617320636C6F736564004661696C656420746F20636C6F73650066696C6500000000434F5059000000005C44697294
:405100005C66696C65312E747874000046696C652077617320000000636F7069656420746F202244495222004661696C656420746F20636F707900004578616D706C6520E0
:4051400070726F6A65637400636F6D706C6574656400000050010000480100004001000038010000300100003001000030010000300100005081FF1F5081FF1F5081FF1FD6
:405180005081FF1F5081FF1F5081FF1F5081FF1F5081FF1F5081FF1F5081FF1F5081FF1F0000004808020048080000488800004808010048880100482802004838020048A7
:4051C000B802004838030048B803004838040048B804004838050048FF3F00001000000010000000FFFF01002000000020000000FFFF07002000000040000000FFFF1F00FB
:405200002000000080000000FFFF3F004000000080000000FFFFFF034000000000200000FF0F000002100000FF7F000002200000FFFF000004200000FFFF03000820000066
:40524000FFFF070010200000FFBF0F00103F0000FF7F1F00203F0000FFFF3E00403F0000FFFF7D00803F0000FFFF7D00FF3F00002514000063130000091300000000000068
:405280002E2E0000FC52000008000100FE5200000A00010001530000140100010353000016010001065300001500010108530000170001010B530000180001000E5300004C
:4052C0001A000100125300001A000100165300001C010001195300001E0100011D5300001E010001215300001D000101245300001F000101285300001F0001017200726263
:405300000077007762006100616200722B00722B620072622B00772B00772B620077622B00612B00612B620061622B002E20202020202020202020002E2E202020202020C2
:40534000202020000C0000000000000010000000F50F000020000000F5FF00004E4F204E414D4520202020000001000001002000000200000100400000080000010080004D
:4053800000100000010000010040000002000001008000000200000100000400040000020000080008000002000010001000000200000001080000000000000210000000BC
:4053C0000000000420000000FFFFFFFF400000004D5357494E342E31004641543136202020004641543132202020004641543332202020000A00000064000000E8030000F3
:4054000010270000000A0C0D0F14191E23282D32373C41508096980040420F00A086010010270000E8030000640000000A000000010000004000000000950000853F00007A
:4054400015400000A9410000D942000025480000FD4700008D3F0000793F00006D6D6300F8B500BFF8BC08BC9E4670477D01000099050000F8B500BFF8BC08BC9E46704746
:4054800059010000985400000881FF1F28000000D8100000000000000000000046696C652E7478740000000000366E01C05D0000180000000000E02E70520000713F000087
:4054C00000000000000000000000000000000000000000000000000000000000000000000000000000000000000000000000000000000000000000000000000000000000AC
:40550000000000000000000000000000000000000000000000000000000000000000000000000000000000000000000000000000000000000000000000000000000000006B
:40554000000000000000000000000000000000000000000000000000000000000000000000000000000000000000000000000000000000000000000000000000000000002B
:4055800000000000000000000000000000000000000000000000000000000000000000000000000000000000000000000000000000000000000000000000000000000000EB
:020000040003F7
:0200000480007A
:400000000414000000000000106C00000191004E04C0002F01710082402C00400740182C0864210801A40040016C00002200080040080010010000003FC0000F4031000F36
:400040002200003200000100000000000000000000000000000000000000000000000000040400000000000100000000000000000000000000000000000000000000000022
:400080000000000000000000001700284829224637D0000600D6000000000000002007D000D200044902100000D600000021008E5404080000D60000070038F0000F4008DC
:4000C0000820000800004140000000000000000000000000000000000000000009000000040400040000000100000000000000000000000000000000000000000000000039
:400100000000000000000000200018480010000C000400080000000300000004000300002E0010300003010000000001180325000020000C0803330038400001003C070232
:4001400000000200000000442306100004DEF0BC3BFFFFFF2200F008040000004000000004040404000000010000C00040011011C001001140014001000000000000000055
:40018000000000000000000000800000000000FF007F0080001F002000C000020000000000C000040090004000C000010000006000C000080000009F000000FF00000000A5
:4001C000000000000000000400000000000000000000000000000000000000000000022C0004000400000001000000000000000000000000000000000000000000000000C4
:4002000000000000000000000000000000000000000000000000000000000000000000000000000F00000000010000000000000000000000010000000004000000000000A9
:40024000000000000000000000000000000000000000000000000000000000000000000000000000000000000000000000000000000000000000000000000000000000007E
:400280000000000000000000000000000000000000000000000000100000000800000000000000000000000000000000000000000000000000000000000000000000000026
:4002C00000040010000000000000000000000000000000000000000000000004000000000000000000000000000000000000000000000000000000000800000000000000DE
:4003000000000000000000000000000000000400020000000000000000000400010000000000000000000000000000000000000000000000000000000000000000000000B2
:400340000000000000000004000000000000000000000000000000000000000000000000000000000000000000000000000000000000000000000000000000000000000079
:400380000000000000000000000000000000000000000000000000000200000000000000000000000000000000000000000000000000000000000000000200000000000039
:4003C0000010010000000000008000040000000000020100000000000040111200000020004120208010001108001140000041102640000000A22004044120000000000085
:40040000000584000000000001001009000000000000000000000000000090100002000000000000085182F5000000008040000000000000000000000000000000000000E7
:4004400000010100000000002400002402512000000000000044003700510400800000880000000000000000000000000000000000000000000000000800030005000000D7
:400480000000FF00BF00FF000F000400000000008E0000000000000000000000000000000000000000000000000000000000000000000000000000001400000002100011A7
:4004C0000040200080088004002000001001006811020000001080100400440420590448106000888000000800000450000000550050010400A100040000000000400100CF
:400500000000000000000000000000000000000000248002000000000100000000000000000000000000000000000000000000000000000000000000000000000000000014
:400540000000000000020000000000000000000000000000000000000000000000000000000000000000000000000000000000000000000000000000F600F500F20000009C
:400580000000AF00FE00FF000000000000000F0008000000000000000000000000000000000000000000000000000000000000000000000000000000007F7F00000000007A
:4005C000015454001400000000000000000000000000000000000000000000000000000000000000000000000000000000000000000000000000000000000000000000003E
:4006000000000000000000000000000000000000000000000000000000000000000000000000000000000000000000000000000000000000000000000000000000000000BA
:40064000000000000000000000000000000000000000000000000000000000000000000000000000000000000000000000000000000000000000000000000000000000007A
:40068000000000000000000000000000000000000000000000000000000000000000000000000000000000000000000000000000000000000000000000000000000000003A
:4006C00000000000000000000000000000000000000000000000000000000000000000000000000000000000000000000000000000000000000000000000000000000000FA
:0200000490006A
:0400000000004005B7
:0200000490105A
:04000000BC90ACAF55
:0200000490303A
:02000000AA7CD8
:0200000490402A
:4000000000000000000000000000000000000000000000000000000000000000000000000000000000000000000000000000000000000000000000000000000000000000C0
:400040000000000000000000000000000000000000000000000000000000000000000000000000000000000000000000000000000000000000000000000000000000000080
:400080000000000000000000000000000000000000000000000000000000000000000000000000000000000000000000000000000000000000000000000000000000000040
:4000C0000000000000000000000000000000000000000000000000000000000000000000000000000000000000000000000000000000000000000000000000000000000000
:0200000490501A
:0C00000000012E12306900012E34DAE5F8
:00000001FF