:400000000080002011000000110500001105000080B500AF024B034A12681A6000F07CFABC760040FA46004010B5054C237833B9044B13B10448AFF300800123237010BD77
:400040003881FF1F00000000444C000008B5064B1BB106480649AFF300800648036813B1054B03B1984708BD00000000444C00003C81FF1F0881FF1F0000000080B500AF65
:40008000924B00221A606CE1904B1B68002B03D1072000F0EBFC07E08C4B1B68DBB2013BDBB2184600F0E2FC894B00221A604EE1874B1B680F2B00F31C81002000F0F6FC9C
:4000C000824B1968824B1B68824A09010B4413441B78002B03D1002000F0A8FC0DE07B4B19687B4B1B687B4A09010B4413441B78012B02D1012000F099FC744B1968744B77
:400100001B68754A09010B4413441B78002B03D1002000F0EBFC0DE06C4B19686C4B1B686D4A09010B4413441B78012B02D1012000F0DCFC654B1968654B1B68674A0901E4
:400140000B4413441B78002B03D1002000F0BEFC0DE05E4B19685E4B1B68604A09010B4413441B78012B02D1012000F0AFFC574B1B6803F10801564B1B68564A09010B4453
:4001800013441B78002B03D1002001F063F80FE04E4B1B6803F108014D4B1B684D4A09010B4413441B78012B02D1012001F052F8464B1B6803F10801454B1B68464A0901D4
:4001C0000B4413441B78002B03D1002001F052F80FE03E4B1B6803F108013D4B1B683E4A09010B4413441B78012B02D1012001F041F8364B1B6803F10801354B1B68374ACF
:4002000009010B4413441B78002B03D1002001F011F80FE02D4B1B6803F108012C4B1B682E4A09010B4413441B78012B02D1012001F000F8254B1968254B1B68274A09015E
:400240000B4413441B78012B3CD0204B1968204B1B68204A09010B4413441B78012B31D01A4B19681A4B1B681B4A09010B4413441B78012B26D0154B1B6803F10801144B82
:400280001B68164A09010B4413441B78012B19D00E4B1B6803F108010D4B1B680D4A09010B4413441B78012B0CD0084B1B6803F10801074B1B68084A09010B4413441B7870
:4002C000012B0DD1002000F0F1FB0CE05481FF1F5881FF1F3494FF1F3493FF1F3492FF1F012000F0E3FB012000F0B0FB002000F0ADFB204B1B680F2B24DD002000F0E6FBF6
:40030000002000F093FB002000F0F0FB002000F091FF002000F09EFF002000F0ABFF012000F094FB002000F091FB124B1B681F2B08D1012000F0BAFB012000F0A7FB002045
:4003400000F0A4FB0B4B1B685A1C0A4B1A60094B1B681F2B7FF7ACAE074B1B685A1C064B1A60054B1B68072B7FF78EAE034B1B7880BD00BF5881FF1F5481FF1F6164004046
:4003800090B583B000AF03F00DFA0346FB712FE01F4B1B781C4603F0F5F903461A461D4B1A551B4B1B781B4AD35C0A2B16D100BF01F040FB0346002BFAD0154B1B78164875
:4003C00014491A4604F02BFC114B1B781248194601F0FAFA0E4B00221A7005E00C4B1B780133DAB20A4B1A7003F0DCF90346FB71FB7903F02003002BCAD1054B1B783F2B0B
:4004000002D9034B00221A700C37BD4690BD00BF0182FF1F7C81FF1FBC81FF1F80B400AFBD465DF8047B704780B584B000AF03F0C7FA0023FB810023BB8100237B81002301
:400440003B7200233B7140237B7262B603F03CF90020002100F01EFF01F0A6FA032001F00DFA02F08BFF62B6214800F0EBFB214803F0C4F9204803F00FFA00F07DFB1F4B54
:4004800000221A602FE01E4B00221A6022E01B4B19681B4B1B681B4A09010B44134400221A70164B1968164B1B68174A09010B44134400221A70114B1968114B1B68134A5D
:4004C00009010B44134400221A700D4B1B685A1C0B4B1A600A4B1B680F2BD8DD074B1B685A1C064B1A60054B1B680F2BCBDDFEE77D0000001D040000810300005481FF1FF3
:400500005881FF1F3494FF1F3492FF1F3493FF1F80B400AFFEE700BF80B586B000AF224B7B61224B3B61204B7B6135E03B691B68FB603B695B68BB603B699B683B6000235D
:400540007B600CE0FB681A68BB681A60BB680433BB60FB680433FB607B6804337B607A683B689A42EED13B69DB683B6000237B6008E0BB6800221A60BB680433BB607B6834
:4005800004337B607A683B689A42F2D13B6910333B617B69013B7B617B69002BC6D104F007FBFFF741FFFEE701000000B84E000080B582B000AF184B184A1A60184B184AAE
:4005C000126842F400721A6000237B600FE07B68032B04D8134B7A6853F8223000E0124B124A796842F821307B6801337B607B682F2BECD90E4B1B78DAB20E4B1A700E4BFB
:400600000A4A1A6000F026F900F07EFB0B4B00221A600837BD4680BD0CED00E00004FA0514ED00E000000000110500000080FF1FBC7600400481FF1F08ED00E00081FF1F09
:4006400080B582B000AF78603960786800213A6804F0DDFA0837BD4680BD00BF80B584B000AFF860B9607A60F868B9687A6804F0C5FA1037BD4680BD80B483B000AF0346E8
:40068000FB71FEE780B487B000AF7860396000233B6100237B6126E07B699B007A6813441B68BB60BB68FB73BB6823F0FF03BB6013E03B695B003A6813441B781A46BB685F
:4006C00013443A69520039680A4452781A703B6901333B61FB7B013BFB73FB7B002BE8D17B6901337B617B69222BD5D91C37BD465DF8047B704700BF80B582B000AF334B76
:4007000000221A80324B58221A70324B22221A80314B18221A70314B06221A70304B52221A70304B304A1278D2B21A702F4B40F618021A802E4B41F251221A800023FB7002
:4007400019237B6014E0FB785B00DAB2294B1B78DBB203F00103DBB21343DBB203F00303FB704FF4F07000F0BBFA7B68013B7B607B68002B02D0FB78032BE4D17B68002B2F
:4007800002D10320FFF778FF1B4B4FF480721A80194B07221A70194B00221A70184B48221A70154B00221A70164B00221A70164B02221A70154B154A1278D2B242F00302F7
:4007C000D2B21A700837BD4680BD00BF804000408240004084400040864000400043004000420040A14600400F010049224200402042004025420040044000400640004025
:40080000084000400940004001400040A243004080B483B000AF0B4B1B78FB710A4BFA7902F00702D2B21A70084BFA791209D2B21A70074B44221A700C37BD465DF8047B7A
:40084000704700BFCF0100496E5800406F5800407658004080B586B000AF72B6574B01221A70FFF749FF564B554A1278D2B242F00402D2B21A700023FB7513E0FA7D134615
:400880005B0013445B004F4A13443B613B691A683B699B889BB210461946FFF7D1FEFB7D0133FB75FB7D062BE8D90023FB751CE0FA7D13469B0013445B00434A1344FB607A
:4008C000FB681B68BB60FB685B687B60FB681A7A5B7A1B0213437B807B88B86879681A46FFF7BCFEFB7D0133FB75FB7D002BDFD04FF090403549FFF7C5FE35480421FFF75C
:400900009FFE34480421FFF79BFE33480421FFF797FE324B314A1278D2B242F00202D2B21A702F4B2E4A1278D2B242F00202D2B21A702C4B2B4A1278D2B242F04002D2B23F
:400940001A70294B284A1278D2B242F01002D2B21A70264826490822FFF780FE254826490A22FFF77BFE254825490A22FFF776FE244825490822FFF771FE244824490822D8
:40098000FFF76CFE234824490822FFF767FE234823490822FFF762FE224B224A1278D2B242F00802D2B21A70FFF732FF1E480D490E22FFF753FE1837BD4680BD0048004081
:4009C000E8460040484C0000744C00008C0000480076004008760040107600400350014013500140A0430040C2430040025100403C090048F05100404409004810510040B0
:400A000050090048225100405C0900483251004064090048425100406C090048525100407409004822430040B043004080B483B000AF0346FB71044BFA791A700C37BD46D0
:400A40005DF8047B704700BF7565004080B483B000AF0346FB71044BFA791A700C37BD465DF8047B704700BF7665004080B483B000AF0346FB71044BFA791A700C37BD46F3
:400A80005DF8047B704700BF7064004080B483B000AF0346FB71044BFA791A700C37BD465DF8047B704700BF7564004080B483B000AF0346FB71044BFA791A700C37BD46BB
:400AC0005DF8047B704700BF7664004080B483B000AF0346FB71044BFA791A700C37BD465DF8047B704700BF7264004080B483B000AF0346FB71044BFA791A700C37BD4678
:400B00005DF8047B704700BF7465004080B582B000AF4FF6FF1000F05BF84FF6FF1000F073F800F0E7F80346FB710A4B094A1278D2B242F01002D2B21A70FB79184600F0A8
:400B4000DDF800F071F8012000F026F80837BD4680BD00BF9164004080B400AF054B054A1278D2B262F07F02D2B21A70BD465DF8047B70477164004080B500AF054B1B78CA
:400B8000002B04D1FFF7C2FF024B01221A70FFF7E3FF80BD0482FF1F80B483B000AF0346FB71044BFA791A700C37BD465DF8047B704700BF8164004080B400AF034B1B783B
:400BC000DBB21846BD465DF8047B70476164004080B483B000AF0346FB80044BFA881A800C37BD465DF8047B704700BF4068004080B400AF034B1B889BB21846BD465DF8E3
:400C0000047B70478068004080B483B000AF0346FB80044BFA881A800C37BD465DF8047B704700BF0068004080B500AF01E0FFF7DFFFFFF7C1FF034603F00803002BF6D151
:400C400080BD00BF80B582B000AF786000F03CF8786800F009F8072000F018F800F028F80837BD4680BD00BF80B485B000AF7860054B1B68FB60FB684C337A681A60143779
:400C8000BD465DF8047B704708ED00E080B483B000AF0346FB71054BFA795201D2B21A700C37BD465DF8047B704700BF03E400E080B400AF034B08221A60BD465DF8047BDF
:400CC000704700BF00E100E080B400AF034B08221A60BD465DF8047B704700BF80E100E00230800800F0058000BF013800467FF4FCAF7047EFF3108072B6704780F31088BC
:400D0000704700BFAFF3008080B483B000AF134B7F221A70124B80221A707F23FB710CE0FB79DB0003F1804303F5F043FA79013AD2B21A70FB79013BFB71FB79002BEFD191
:400D4000FB79DB0003F1804303F5F04300221A700C37BD465DF8047B704700BF0D81FF1F0C81FF1F80B485B000AF02460B46FA71BB710123FB60FB79172B2FD8BB79002BCC
:400D80000ED0FB791A01194B1344FA791101174A0A441278D2B242F02002D2B21A700DE0FB791A01114B1344FA7911010F4A0A441278D2B222F02002D2B21A70FB791A012D
:400DC0000A4B1344FA791101084A0A441278D2B242F00102D2B21A700023FB60FB6818461437BD465DF8047B704700BF1070004080B485B000AF0346FB710123FB60FB797A
:400E0000172B1DD8FB791A01114B1344FA7911010F4A0A441278D2B222F00102D2B21A70FB791A010A4B1344FA791101084A0A441278D2B222F02002D2B21A700023FB60AE
:400E4000FB6818461437BD465DF8047B704700BF1070004080B485B000AF02460B46FA71BB710123FB60FB79172B18D8FB791A010E4B13441B78DBB223F00E03FB72FB7988
:400E80001A010A4B1344BA7902F00702D2B25200D1B2FA7A0A43D2B21A700023FB60FB6818461437BD465DF8047B70471070004080B485B000AF13460246FA710A46BA808F
:400EC0007B800123FB60BA8841F6FF739A4202D14FF40053BB807A8841F6FF739A4202D14FF400537B80FB79172B17D8FB79DB0003F1804303F5EC430433BB60BB68BA8899
:400F00001A80FB79DB0003F1804303F5EC430633BB60BB687A881A800023FB60FB6818461437BD465DF8047B704700BF80B485B000AF02460B46FA71BB710123FB60FB79C5
:400F4000172B07D8FB791A01064B1344BA795A720023FB60FB6818461437BD465DF8047B704700BF1070004080B485B000AFF871B9717A713B710123FB60FB79172B34D800
:400F8000FB79DB0003F1804303F5EC43BA7902F07F02D1B27A79D201D2B20A43D2B21A70FB79DB0003F1804303F5EC433A7E1201D1B23A7902F00F02D2B20A43D2B25A70E6
:400FC000FB79DB0003F1804303F5EC433A7F02F00F02D2B29A70FB79DB0003F1804303F5EC430022DA700023FB60FB6818461437BD465DF8047B704780B582B000AFFF2391
:40100000FB71FFF777FE0346BB71104B1B78182B12D90F4B1B78FB710C4B1B78013BDAB20A4B1A70FB79DB0003F1804303F5F0431B78DAB2064B1A70BB791846FFF75EFE4F
:40104000FB7918460837BD4680BD00BF0C81FF1F0D81FF1F80B485B000AFF871B980BA71FB700123FB60FB795BB2002B23DBBB8823F47F6323F00F039BB2002B1BD1FB7957
:40108000DB0003F1804303F5F043BB60BB68BA881A80FB79DB0003F1804303F5F043BA799A70FB79DB0003F1804303F5F043FA78DA700023FB60FB6818461437BD465DF81C
:4010C000047B704780B485B000AF13460246FA710A46BA807B800123FB60FB795BB2002B17DBFB79DB0003F1804303F5F0430433BB60BB68BA881A80FB79DB0003F180436C
:4011000003F5F0430633BB60BB687A881A800023FB60FB6818461437BD465DF8047B704780B483B000AF0346FB7101BE0C37BD465DF8047B704700BF80B582B000AF786051
:4011400008E00C4B1B681846FFF7CAFD7B68A3F500437B607B68B3F5004FF2D8064B1B687A6802FB03F31846FFF7BAFD0837BD4680BD00BF2081FF1F1881FF1F80B582B086
:4011800000AF0346FB80FB88044A127802FB03F31846FFF7A5FD0837BD4680BD1C81FF1F80B584B000AF03463960FB710F4B1B68FB60FB791F2B02D90020FFF7B1FFFB79CD
:4011C00003F01F0310339B00FA6813441B68BB60FB7903F01F0310339B00FA6813443A681A60BB6818461037BD4680BD08ED00E080B582B000AF02460B46FA71BB71BB7912
:40120000072B02D90020FFF78BFFFB791F2B02D90020FFF785FFFB7903F01F0303F1604303F56443BA795201D2B21A700837BD4680BD00BF80B483B000AF0346FB71044B23
:40124000FA791A700C37BD465DF8047B704700BF7C64004080B483B000AF0346FB71044BFA791A700C37BD465DF8047B704700BF7464004080B483B000AF0346FB71044BE8
:40128000FA791A700C37BD465DF8047B704700BF7364004080B582B000AF02460B46FA71BB71094B1B78002B04D100F00FF8064B01221A70FA79BB791046194600F0E6F83E
:4012C0000837BD4680BD00BF0582FF1F80B582B000AFFFF70FFD03467B715A4B594A1278D2B242F00102D2B21A70574B564A1278D2B242F00102D2B21A70544B01221A7046
:40130000534B02221A70534B524A1278D2B202F07F02D2B21A700020FFF730FF4E4B4E4A1278D2B222F00602D2B21A704B4B4B4A1278D2B222F02002D2B21A70464B464A50
:401340001278D2B242F00102D2B21A700120FFF715FF2820FFF712FF414B414A1278D2B202F07F02D2B21A703D4B3D4A1278D2B222F04002D2B21A70374B374A1278D2B26C
:4013800042F00202D2B21A700220FFF7F7FE324B314A1278D2B242F00402D2B21A70314B00221A70304B00221A700023FB8006E0FB882E4AFF21D154FB880133FB80FB88C8
:4013C000082BF5D97B791846FFF798FC17202849FFF7E6FE17200721FFF70AFF15202549FFF7DEFE15200721FFF702FF18202249FFF7D6FE18200721FFF7FAFE00201F4924
:40140000FFF7CEFE00200721FFF7F2FE01201C49FFF7C6FE01200721FFF7EAFE02201949FFF7BEFE02200721FFF7E2FE16201649FFF7B6FE16200021FFF7DAFE0837BD4659
:4014400080BD00BFA5430040B54300409D60004009600040106000409443004012600040F851004084600040856000404095FF1FA121000095210000651A00009120000044
:40148000E520000039210000AD21000080B582B000AF02460B46FA71BB712A4B4FF400021A60284B4FF080721A60264B01221A60244B02221A60234B04221A60224B0722A8
:4014C0001A70204B4FF480021A60204B20221A701F4B00221A70BB79002B02D0012B04D007E01C4B02221A7007E01A4B03221A7003E0184B03221A7000BF174BFA791A7030
:40150000164B00221A70164B00221A70154B00221A70154B00221A70144B00221A70144B00221A70134B03221A70134B80221A700120FFF7D5FB114B04221A700837BD4697
:4015400080BD00BF00E100E09E6000409C600040E095FF1F09600040E195FF1F5395FF1F5495FF1F5295FF1FE695FF1F5595FF1F5195FF1F2860004008600040126000408B
:4015800080B400AF0F4B00221A700F4B00221A700E4B00221A700E4B00221A700D4B00221A700D4B00221A700C4B00221A700C4B03221A700B4B80221A70BD465DF8047BC8
:4015C000704700BFE095FF1F5395FF1F5495FF1F5295FF1FE695FF1F5595FF1F5195FF1F286000400860004090B585B000AF03463960FB71FA79334913465B0013449B00AF
:401600000B441B79DBB2DBB25BB2002B06DA3B681B0CFB814FF48043BB8105E04FF48043FB813B681B0CBB81FB79013B072B37D801A252F823F000BF5916000071160000FA
:4016400089160000A1160000A1160000A1160000A1160000A1160000FC79FA89BB890020002102F001F803461A46174B1A5518E0FC79FA89BB890020002101F0C5FF0346E3
:401680001A46114B1A550CE0FC79FA89BB890020002101F089FF03461A460B4B1A5500E000BFFB79002B09D0FB79082B06D8FC79FFF7A2FC03461A46044B1A551437BD4655
:4016C00090BD00BF7095FF1F3495FF1F4095FF1F90B585B000AF396013460246FA71BB80FB79002B00F0B880FB79082B00F2B480FB79013BDBB21B01FB73FA7B584B13440E
:40170000BB60B988FA79574813465B0013449B000344DB889BB2C3F5007399420BD9FA79504913465B0013449B000B44DB889BB2C3F50073BB80FA7B4B4B13441946BB8899
:401740001B0A9BB2D8B2FA79464C13465B0013449B002344DB78DBB20343DBB20B70FA7B424B1344BA88D2B21A70FB79404AD35CFF2B04D1FB7918463968FFF735FFFA7948
:40178000384913465B0013449B000B4400225A703B68002B52D0BB88002B4FD0FB79354AD35C1846FFF724FBFB79314AD25CBB8810461946FE221123FFF74CFCFB792C4A24
:4017C000D15C3B689AB2BB689BB2084611461A46FFF778FCFB79274AD25CFB792449CB5C10461946FFF7A2FBFB79224AD35C18460121FFF7B7FAFB7B03F1804303F5C1432C
:401800001A46FB7B03F1804303F5C1431B78DBB243F00203DBB21370FB7B03F1804303F5C1431A46FB7B03F1804303F5C1431B78DBB223F00203DBB213700DE0FA7B0E4B02
:4018400013441946FA79074813465B0013449B0003445B79DBB20B701437BD4690BD00BF886000407095FF1F0C6000400D6000404095FF1F3495FF1F0E60004080B485B038
:4018800000AF0346FB71FB79002B1ED0FB79082B1BD8FB79013BDBB21B01FB73FA790D4913465B0013449B000B4400225A70FA7B094B13441946FA79064813465B001344E1
:4018C0009B0003445B79DBB20B701437BD465DF8047B70477095FF1F0E60004080B582B000AF0023FB71294B1B78DBB2DBB25BB2002B11DA264B1B78DBB2212B00D00AE000
:40190000244B07221A80234B234A5A6000F026FA0346FB7100BF34E01C4B1B78DBB2DBB25BB2002B2DDB1A4B1B78DBB2202B02D0222B13D025E0174B07221A80154B164A38
:401940005A60164B1B78DBB243F00103DAB2134B1A7000F083FA0346FB7112E0104B1B78DBB21A460F4B1A800C4B1B78DBB243F00203DAB2094B1A7000F010FB0346FB71D5
:4019800000BFFB7918460837BD4680BD00600040016000406095FF1F2481FF1F4E95FF1F026000404C95FF1F80B500AF044B00221A70044B1B78DBB21846FFF75FFF80BD21
:4019C0004E95FF1F4A95FF1F80B582B000AF78600B467B80154B1B78DBB21A46144913465B0013449B000B4408331B889BB27A889A420FD90D4B1B78DBB21A460C49134606
:401A00005B0013449B000B4408331B887B800020FFF786FB054B1B78DAB27B88104679681A46FFF755FE0837BD4680BD4B95FF1F7095FF1F80B400AF084B1B78DBB21A46F2
:401A4000074913465B0013449B000B445B78DBB21846BD465DF8047B704700BF4B95FF1F7095FF1F80B582B000AF374B1B78BB71BB7903F01003002B63D00123FB71BB7942
:401A80005BB2002B13DABB7903F00F03012B02D00023FB711DE000F061F82C4B1B78DBB2DBB25BB2002B14DA0023FB7111E0BB7903F04003002B02D000F094F809E0BB792B
:401AC00003F02003002B02D000F0B2F801E00023FB71FB79002B34D01B4B1B78BB71BB795BB2002B2DDB1A4B1B78DAB2194B1B78DBB21343BB71184BBA791A70164B1B78EF
:401B0000DBB2BA799A421CD1104B1B78FB710E4B1B78DBB223F07F03BB71BB79002B0AD1094B0A4A1278D2B21A70074B1B78DBB203F00F03FB71054B1B78DBB2FA799A426C
:401B4000E2D10837BD4680BD286000405095FF1F5695FF1F6C95FF1F2960004080B582B000AF1D4B1B78FB711B4BFA791A701A4B1B78FB71FB795BB2002B03DA174BFA79D5
:401B80001A7025E0022000F049FA154B1B78DBB203F06003202B08D0402B0BD0002B0ED100F094FB0346FB710CE001F0C3FE0346FB7107E001F074FB0346FB7102E0002370
:401BC000FB7100BFFB79002B02D1044B03221A700837BD4680BD00BF286000405095FF1F0060004080B500AF104B1B78DBB2062B19D801A252F823F0271C0000271C00009A
:401C0000151C0000271C00001B1C0000271C0000211C000000F0FCF806E000F0AFF903E000F0D8F900E000BF80BD00BFE095FF1F80B500AF124B1B78DBB2062B1DD801A21B
:401C400052F823F07B1C00007B1C0000611C00007B1C0000671C00007B1C00006D1C000000F0DCF80AE000F02DF907E0032000F0D5F9044B03221A7000E000BF80BD00BFFD
:401C8000E095FF1F5095FF1F80B483B000AF0023FB712B4B1B78DBB21A462A4B1B889BB213449AB2274B1A8018E0FB7903F1804303F5C043244A52681278D2B21A70224B94
:401CC0005B685A1C204B5A60FB790133FB711E4B1B889BB2013B9AB21B4B1A801A4B1B889BB2002B02D0FB79072BDED9144B1B78DBB2082B02D0FB79002B0FD0134B1B78EF
:401D0000DBB283F07F03DB43DAB2104B1A70104B0F221A700F4B02221A7005E00C4B02221A700C4B02221A70054BFA791A700A4BFA791A700C37BD465DF8047B704700BF56
:401D40005195FF1FDE95FF1F6095FF1F5695FF1F5095FF1FE095FF1F6C95FF1F80B582B000AF154B1B889BB2002B02D100F02EF81DE0124B02221A70114B00221A7000F083
:401D80006DF9104B1B78DBB21B029AB20E4B1B78DBB213439BB2FB80074B1B889BB2FA889A4202D2044BFA881A80FFF76DFF012318460837BD4680BD6095FF1FE095FF1F5A
:401DC0005695FF1F076000400660004080B400AF0A4B02221A700A4B80221A70094B0F221A70094B00221A70084B00221A7001231846BD465DF8047B704700BFE095FF1FB6
:401E00005695FF1F5095FF1F5195FF1F6C95FF1F80B500AFFFF738FF80BD00BF80B500AF0A4B1B78DBB21A46094B1B889BB213449AB2074B1A80074B00221A70012000F0CB
:401E4000EDF8054B03221A7080BD00BF5195FF1FDE95FF1FE095FF1F5095FF1F80B582B000AF124B04221A70114B80221A7000F0F5F8104B1B78DBB21B029AB20E4B1B78FF
:401E8000DBB213439BB2FB800C4B1B889BB2FA889A4202D2094BFA881A80094B0B221A70012318460837BD4680BD00BFE095FF1F5695FF1F07600040066000406095FF1FC7
:401EC0005095FF1F80B483B000AF0023BB71254B1B78DBB203F00F03DBB2023BFB71FB799AB2214B1B889BB213449AB21E4B1A801BE01E4B5A68BB7903F1804303F5C043E1
:401F00001B78DBB21370194B5B685A1C174B5A60BB790133BB71FB79013BFB71134B1B889BB2013B9AB2114B1A80104B1B889BB2002B02D0FB79002BDBD10D4BFA791A70E1
:401F40000C4B1B78DBB283F07F03DB43DAB2094B1A70094B0B221A700C37BD465DF8047B704700BF29600040DE95FF1F6095FF1F6C95FF1F5695FF1F5095FF1F80B500AF56
:401F8000044B00221A70012000F048F8024B03221A7080BDE095FF1F5095FF1F80B400AF084B06221A70084B06221A70074B80221A70074B00221A7001231846BD465DF8C3
:401FC000047B7047E095FF1F5095FF1F5695FF1F6C95FF1F80B500AF0C4B1B78DBB2002B0AD00B4B094A1278D2B262F07F02D2B21A70064B00221A70064B00221A700120DA
:4020000000F00CF8044B03221A7080BDE695FF1F08600040E095FF1F5095FF1F80B483B000AF0346FB710B4B9B68002B0CD0094B9B68FA791A70074B9B68074A128892B297
:402040005A80044B00229A600C37BD465DF8047B704700BF6095FF1FDE95FF1F80B400AF094B00221A80094B9B68002B07D0074B9B6800221A70054B9B6800225A80BD4648
:402080005DF8047B704700BFDE95FF1F6095FF1F80B400AF104B1B78104B1B7BDBB203F00303012B08D00D4BDB7BDBB283F07F03DB43DAB2094BDA73084B01225A73084BD5
:4020C000074A1278D2B222F00102D2B21A70BD465DF8047B704700BF0E6000407095FF1F0B60004080B400AF104B1B78104B1B7EDBB203F00303012B08D00D4BDB7EDBB208
:4021000083F07F03DB43DAB2094BDA76084B01225A76084B074A1278D2B222F00202D2B21A70BD465DF8047B704700BF1E6000407095FF1F0B60004080B400AF124B1B7894
:40214000124B93F82430DBB203F00303012B0AD00E4B93F82730DBB283F07F03DB43DAB20A4B83F82720094B012283F82520084B074A1278D2B222F00402D2B21A70BD4607
:402180005DF8047B704700BF2E6000407095FF1F0B60004080B400AFBD465DF8047B704780B500AFFFF7ECF980BD00BF80B483B000AF0123BB7100237B71404B1B78FB710E
:4021C0003E4BFA791A7071E0FB7903F00103002B63D07A793A4B13441B783B713B7903F00103002B2BD0BA79364913465B0013449B000B441B79DBB2DBB25BB2002B1EDADB
:402200007B7903F1804303F5C1431A467B7903F1804303F5C1431B78DBB223F00103DBB213707A79284B13441946BA79254813465B0013449B0003445B79DBB20B703B7970
:4022400003F00203002B23D0BA791E4913465B0013449B000B441B79DBB2DBB25BB2002B16DBBA79174913465B0013449B000B4400225A707A79144B13441946BA791148DA
:4022800013465B0013449B0003445B79DBB20B707A790B4B13443A791A707B7910337B71BB790133BB71FB795B08FB71FB79002B8AD10C37BD465DF8047B70479F60004074
:4022C000826000407095FF1F0E60004080B586B000AF0023FB7500233B619D4B00221A809C4B1B78DBB2DBB25BB2002B80F20581994B1B78DBB20A2B00F2FD8001A252F882
:4023000023F000BF4B240000F7240000F7240000F7240000F7240000F724000031230000F7240000C1240000F7240000D72400008A4B1B78DBB2012B0ED100F02BFEB8603A
:40234000BB685A68824B5A60814B12221A80FFF705FD0346FB7577E0804B1B78DBB2022B23D17F4B1B78DBB2184600F0E9FDB860BB68002B68D0BB685A68754B5A60744B69
:402380005B6803331B78DBB21B029AB2704B5B6802331B78DBB213439BB29AB26C4B1A80FFF7DCFC0346FB75A6E06C4B1B78DBB2032B44D10023FB736A4B3B6109E03B69F2
:4023C0001B78FB71FB793A6913443B61FB7B0133FB73634B1B78DBB2FA7B9A4204D23B691B78DBB2002BEAD15D4B1B78DBB2EE2B01D15D4B3B615A4B1B78DBB2002B0BD05B
:40240000574B1B78DAB2594B1B7C9A4204D1584800F0ACF9564B3B613B691B78DBB2002B12D03B691B78DBB21A46494B1A80484B3A695A60FFF792FC0346FB755CE001F000
:4024400079FA0346FB7557E056E0424B1B78DBB203F00303002B1FD0022B00D02FE03C4B02221A80434B1B78DBB203F07F02424913465B0013449B000B449B78DAB23F4BE7
:402480001A703E4B00225A70314B3C4A5A60FFF765FC0346FB7512E02D4B02221A80384B1B78DAB2354B1A70344B00225A70284B324A5A60FFF752FC0346FB7500BF1BE0B2
:4024C000234B01221A80224B2E4A5A60FFF746FC0346FB7510E01E4B01221A80254B1B78DBB21A46284B1A44194B5A60FFF736FC0346FB7500E000BF1FE1174B1B78DBB22A
:40250000013B0A2B00F2188101A252F823F000BF2126000039270000AD260000392700003D2500003927000039270000392700009125000039270000E7250000084B1B787C
:40254000DAB2124B1A70FFF729FD0346FB75F4E06095FF1F00600040016000400360004002600040EC4C0000EC4D0000944C0000E895FF1F046000407095FF1F0882FF1F4B
:402580005595FF1F5395FF1F5C95FF1FE695FF1F6C4B1B78BB71BB79002B06D0BB79013BDBB2184600F0CCFCB860BB79002B02D0BB68002B02D1BB79002B13D1624B1B78BA
:4025C000DBB2BA799A4208D05F4BBA791A705F4B01221A70012000F0D7F9FFF7DFFC0346FB75AAE0A9E000F01FFE0346002B16D0574B1B787B71574B7A791A70534B0122C3
:402600001A7000F063FB7B797A7953498A5CD1B2524AD154FFF7C2FC0346FB758DE08CE04F4B1B78DBB203F00303012B22D0012B0DD3022B00D038E0424B1B78DBB2002B05
:4026400004D100F04FFD0346FB752EE02DE03D4B1B78DBB2012B0CD1424B1B78DBB223F00203DAB23F4B1A70FFF798FC0346FB751BE01AE0364B1B78DBB2012B14D8344BEF
:402680001B78DBB21A463849CB5CD9B22D4B1B78DBB2DB43DBB20B40D9B2334B9954FFF77DFC0346FB75FFE700BF46E02C4B1B78DBB203F00303012B22D0012B0DD3022B09
:4026C00000D038E01F4B1B78DBB2002B04D100F099FC0346FB752EE02DE01A4B1B78DBB2012B0CD11F4B1B78DBB243F00203DAB21C4B1A70FFF752FC0346FB751BE01AE050
:40270000134B1B78DBB2012B14D8114B1B78DBB21A461549CB5CD9B20A4B1B78DBB2DB43DBB20B40D9B2104B9954FFF737FC0346FB75FFE700BF00E000BFFB7D184618378E
:40274000BD4680BD026000405395FF1F5295FF1F046000405495FF1F5C95FF1FDC95FF1F006000405595FF1FE495FF1F90B488B000AF78600023BB771F4B07F10C040FCB40
:4027800084E80F007B68002B32D07B6822221A707B68013303221A700223FB7725E0BB7F03F1924303F580731B787B77BB7F0133BB77FB7F7A6813447A7F1209D2B207F125
:4027C00020010A4412F8142C1A70FB7F02337A6813447A7F02F00F0207F120010A4412F8142C1A70FB7F0433FB77FB7F212BD6D92037BD4690BC7047804C000080B483B04F
:4028000000AF0123FB710023BB719CE0BB7903F1804303F5C1430C221A70BA79504B13441F221A70FA794F4913465B0013449B000B445B79DBB2002B18D0FA79494913462D
:402840005B0013449B000B441B79DBB2DBB25BB2002B05DABA79444B13440C221A700AE0BA79414B134408221A7004E0BA793E4B134480221A70BA793C4B13441946FA796C
:40288000384813465B0013449B00034408331B889BB21B0A9BB2DBB20B70BA79344B13441946FA792F4813465B0013449B00034408331B889BB2DBB20B70BA792D4B134492
:4028C0001946FA79274813465B0013449B000344DB889BB2DBB20B70BA79274B13441946FA79204813465B0013449B000344DB889BB21B0A9BB2DBB20B70BA791F4B1344B1
:402900001946FA79174813465B0013449B000344DB889BB2DBB20B70BA79194B13441946FA79104813465B0013449B000344DB889BB21B0A9BB2DBB20B70FB790133FB717E
:40294000BB791033BB71BB795BB2002BBFF65EAF0C4BFF221A700C37BD465DF8047B7047816000407095FF1F0E6000400C6000400D600040866000408760004084600040F7
:40298000856000400A60004080B588B000AF0346FB7100237B830023FB7743E0FA7FA14913465B0013449B000B4400221A70FA7F9C4913465B0013449B000B4400229A701B
:4029C000FA7F984913465B0013449B000B4400225A70FA7F934913465B0013449B000B440022DA70FA7F8F4913465B0013449B000B4400225A71FA7F8A4913465B0013445C
:402A00009B000B44083300221A80FA7F854913465B0013449B000B44083300229A70FB7F0133FB77FB7F082BB8D9FB79002B10D000237B770AE07B7F7B4A0021D1547B7F37
:402A40007A4A0021D1547B7F01337B777B7F012BF1D9774B1B78DBB2002B00F03081744B1B78DBB2013BDBB2184600F069FA38613B695B68FB60FB6807331B7803F0400374
:402A8000002B08D06B4B1B78DBB243F00103DAB2684B1A7007E0674B1B78DBB223F00103DAB2644B1A703B6908333B613B691B78FB7701237B77AAE03B695B687B6100237E
:402AC000BB779CE07A7F7B699B7803F07F039A4240F08F807A7F534913465B0013449B000B4408331B889AB27B699B889A420BD27A7F7B6999884B4813465B0013449B00FD
:402B0000034408330A461A807B691B78464AD35CDAB27B695B789A426BD17B69DB7803F00303FB727B699B78DBB25BB2002B25DA7A7F3C4913465B0013449B000B440122AA
:402B40005A70797FFB7A012B01D1072200E00D2234480B465B000B449B0003445A717B699B790A2B03D07B699B79022B2BD1FB7A032B28D0304B7A7F1A7024E07A7F29499B
:402B800013465B0013449B000B4400225A70797FFB7A012B01D1052200E0092221480B465B000B449B0003445A717B699B790A2B03D07B699B79022B05D1FB7A032B02D016
:402BC0001E4B7A7F1A707A7F7B699978154813465B0013449B0003440A461A717A7F7B69D978104813465B0013449B0003440A461A707B6908337B61BB7F0133BB77BA7FB5
:402C0000FB7F9A42FFF45EAF7B7F01337B777B7F082B7FF651AF3B695B687B6100237B7723E000BF7095FF1F5C95FF1FDC95FF1F5395FF1F5595FF1F4B95FF1F4A95FF1F98
:402C40007B699B7803F07F027B6919781D4813465B0013449B00034408330A469A707B6908337B617B7F01337B777A7FFB7F9A42E6D300F0A1F90246134B1A600123FB772A
:402C800018E0FA7F0F4913465B0013449B000B447A8BDA80FA7F0B4913465B0013449B000B4408331B889AB27B8B13447B83FB7F0133FB77FB7F082BE3D9FFF79FFD20373E
:402CC000BD4680BD7095FF1F5895FF1F80B584B000AF8F4B1B78DBB2002B00F015818C4B1B78DBB2013BDBB2184600F029F978607B6808337B607B681B78FB707B685B681B
:402D0000BB600023FB73FAE0BB681B78814AD35CDAB2BB681B788049CB5CDBB29A4200F0E880BB681B787B4AD35CDAB2BB685B789A4240F0DE80BB681A78784B1B78DBB23C
:402D40009A4240F0D680BB689B7803F07F03BB70BB78013BDBB21B017B70BB68DB7803F003033B70BB689B78DBB25BB2002B17DABA786B4913465B0013449B000B44012214
:402D80005A70B9783B78012B01D1072200E00D2263480B465B000B449B0003445A7116E0BA785F4913465B0013449B000B4400225A70B9783B78012B01D1052200E0092217
:402DC00057480B465B000B449B0003445A717A78544B134401221A70BA78BB689988504813465B0013449B00034408330A461A80BA78BB6899784A4813465B0013449B0039
:402E000003440A461A71BA78BB68D978444813465B0013449B0003440A461A70BA78404913465B0013449B000B440022DA707A783D4B13441946BA78394813465B0013446D
:402E40009B00034408331B889BB21B0A9BB2DBB20B707A78354B13441946BA78304813465B0013449B00034408331B889BB2DBB20B707A782E4B13441946BA7828481346BD
:402E80005B0013449B000344DB889BB2DBB20B707A78284B13441946BA78214813465B0013449B000344DB889BB21B0A9BB2DBB20B707A78204B13441946BA7818481346FB
:402EC0005B0013449B000344DB889BB2DBB20B707A781A4B13441946BA78114813465B0013449B000344DB889BB21B0A9BB2DBB20B70BB680833BB60FB7B0133FB73FA7BD1
:402F0000FB789A42FFF400AF1037BD4680BD00BF5395FF1F5C95FF1FDC95FF1F046000407095FF1F0E6000400C6000400D6000408660004087600040846000408560004052
:402F400080B485B000AF0346FB71104B1B78DBB20F4ADB0013445B68FB60FB680833FB60FB681B78FA799A4202D30023FB6005E0FB79DB00FA6813445B68FB60FB68184603
:402F80001437BD465DF8047B704700BFE195FF1FE44D000080B400AF054B1B78DBB2054ADB0013445B681846BD465DF8047B7047E195FF1FE44D000080B584B000AF104BF9
:402FC0001B78DBB2013BDBB21846FFF7B9FFB860BB68002B0DD0BB685B681B79FB71FB790233DB00BA681344BB60BB685B68FB6001E00023FB60FB6818461037BD4680BDB3
:403000005395FF1F80B582B000AF0023FB71324B1B78DBB203F07F03BB71BB79013BDBB21B017B71BB79002B51D0BB79082B4ED8BA79B97929480B465B000B449B000344E2
:403040009B78DBB243F00103D9B2244813465B0013449B0003440A469A70BA791F4913465B0013449B000B440022DA70BA79B9791A480B465B000B449B0003445B78DBB23B
:4030800043F00203D9B2154813465B0013449B0003440A465A70BA79104913465B0013449B000B441B79DBB2DBB25BB2002B05DA7A790B4B13448D221A7004E07A79084BA0
:4030C000134489221A70FEF769FF0346FB71FB7918460837BD4680BD046000407095FF1F0E60004080B582B000AF0023FB714A4B1B78DBB203F07F03BB71BB79013BDBB274
:403100001B017B71BB79002B00F08180BB79082B7DD8BA79B97941480B465B000B449B0003449B78DBB223F00103D9B23B4813465B0013449B0003440A469A70BA793749F1
:4031400013465B0013449B000B440022DA707A79334B13441A467979314B0B441B78DBB203F07F03DBB21370BA79B9792B480B465B000B449B0003445B78DBB223F0020337
:40318000D9B2264813465B0013449B0003440A465A70BA79214913465B0013449B000B441B79DBB2DBB25BB2002B16DABA791B4913465B0013449B000B445B78DBB2012B8F
:4031C00005D17A79174B13440C221A701BE07A79144B13440D221A7015E0BA790F4913465B0013449B000B445B78DBB2012B05D17A790C4B134408221A7004E07A79094BE1
:40320000134409221A70FEF7C9FE0346FB71FB7918460837BD4680BD046000407095FF1F0C6000400E60004080B584B000AF0123FB73164B1B78BB73154B1B78DBB2013B17
:40324000DBB21846FFF77CFEB860BB685B681B79FB71BA7BFB799A4202D2BB7B012B02D90023FB730CE0BB7BBA7B0A498A5CD1B2094AD154BB7B094A1278D1B2054AD15439
:40328000FB7B18461037BD4680BD00BF046000405395FF1F5C95FF1FDC95FF1F0260004080B582B000AF0023FB710F4B1B78DBB2DBB25BB2002B12DA0C4B1B78DBB2012B97
:4032C00000D00CE00A4B0B4A5A600A4B1B781A46074B1A80FEF742FD0346FB7100BFFB7918460837BD4680BD00600040016000406095FF1F004E000080B500AF2820FDF7BF
:403300001BFF032000F020F90520FDF715FF032000F01AF90F20FDF70FFF032000F014F90120FDF709FF022000F00EF90520FDF703FF062000F032F80E2000F02FF82C2081
:4033400000F02CF8082000F029F8012000F026F80C2000F023F8032000F020F80520FDF7EBFE80BD80B500AF0C2000F017F8024B01221A7080BD00BF0C82FF1F80B500AF9B
:40338000054B1B78002B04D1FFF7B6FF024B01221A70FFF7E7FF80BD0D82FF1F80B584B000AF0346FB7100F013F8FB791B09FB73FB7B184600F0C8F8FB7903F00F03FB7386
:4033C000FB7B184600F0C0F81037BD4680BD00BF80B582B000AF4FF4CA737B60554B554A1278D2B222F07F02D2B21A70524B1B78DBB223F00F03FB704F4BFA7842F00F0210
:40340000D2B21A704D4B1B78DBB223F00F03FB704A4BFA781A704A4B1B78DBB223F00F03FB70474BFA781A70424B424A1278D2B222F02002D2B21A703E4B3E4A1278D2B24A
:4034400042F04002D2B21A700020FDF797FE394B384A1278D2B242F01002D2B21A700120FDF78CFE374B1B78FB70324B314A1278D2B222F01002D2B21A700020FDF77EFED4
:40348000FB7803F00803FB702A4B2A4A1278D2B242F01002D2B21A700120FDF76FFE254B244A1278D2B222F01002D2B21A70FB78002B02D10A20FDF761FE7B68013B7B605F
:4034C000FB78002B02D07B68002BBDD1194B194A1278D2B222F04002D2B21A70154B154A1278D2B222F07F02D2B21A70124B124A1278D2B222F00F02D2B21A700F4B1B7836
:40350000DBB223F00F03FB700C4BFA7842F00F02D2B21A700A4B1B78DBB223F00F03FB70074BFA7842F00F02D2B21A700837BD4680BD00BF205100402251004023510040E4
:40354000245100402151004080B582B000AF0346FB71144B134A1278D2B222F06002D2B21A70104B0F4A1278D2B222F00F02D2B21A700C4B0B4A1278D1B2FA790A43D2B2DD
:4035800042F01002D2B21A700120FDF7F7FD054B044A1278D2B222F01002D2B21A700837BD4680BD2051004080B584B002AFF871B971BA807B80134B02221A70114B1978C7
:4035C000FA79BB790020009000200190084611461A460023FDF7C8FC0A4B1978BA887B88084611461A46FDF763FC064B1B7818460221FDF72FFC034B1B7818460837BD465B
:4036000080BD00BF2C81FF1F80B584B002AFF871B971BA807B80134B01221A70114B1978FA79BB790020009000200190084611461A460023FDF798FC0A4B1978BA887B8806
:40364000084611461A46FDF733FC064B1B7818460221FDF7FFFB034B1B7818460837BD4680BD00BF2D81FF1F80B584B002AFF871B971BA807B80134B00221A70114B1978AD
:40368000FA79BB790020009000200190084611461A460023FDF768FC0A4B1978BA887B88084611461A46FDF703FC064B1B7818460221FDF7CFFB034B1B7818460837BD46BB
:4036C00080BD00BF2E81FF1F80B500AF054B1B78002B04D100F008F8024B01221A7000F023F880BD0E82FF1F80B400AF094B76221A70094B20221A70084B0E221A70084B81
:403700008F221A70074B00221A70BD465DF8047B704700BF876400408364004023640040336400408064004080B582B000AFFDF7E1FA0346FB71104B0F4A1278D2B242F061
:403740002002D2B21A700D4B0C4A1278D2B242F01002D2B21A700A4B094A1278D2B242F01002D2B21A7000F02FF8FB791846FDF7C5FA0837BD4680BD976400409364004076
:403780009064004080B483B000AF054B1B78FB71FB7918460C37BD465DF8047B704700BF4465004080B483B000AF064B1B78DBB203F07F03FB71FB7918460C37BD465DF850
:4037C000047B70476364004080B400AF094B094A1278D2B242F00202D2B21A70064B064A1278D2B242F00202D2B21A70BD465DF8047B7047A2430040B243004080B582B06E
:4038000000AF786000F03CF8786800F009F8072000F018F800F028F80837BD4680BD00BF80B485B000AF7860054B1B68FB60FB6854337A681A601437BD465DF8047B70475A
:4038400008ED00E080B483B000AF0346FB71054BFA795201D2B21A700C37BD465DF8047B704700BF05E400E080B400AF034B20221A60BD465DF8047B704700BF00E100E030
:4038800080B400AF034B20221A60BD465DF8047B704700BF80E100E080B582B000AF786000F03CF8786800F009F8062000F018F800F028F80837BD4680BD00BF80B485B0CD
:4038C00000AF7860054B1B68FB60FB6850337A681A601437BD465DF8047B704708ED00E080B483B000AF0346FB71054BFA795201D2B21A700C37BD465DF8047B704700BFA4
:4039000004E400E080B400AF034B10221A60BD465DF8047B704700BF00E100E080B400AF034B10221A60BD465DF8047B704700BF80E100E080B582B000AF0023FB710023A1
:40394000BB711B4B1B78DBB203F00303012B02D0022B04D012E0174B1B78BB710EE0154B1B78DBB203F07F02134913465B0013449B000B4408339B78BB7100BF0F4B1A6842
:40398000BB7913441B78022B04D0032B07D0012B07D007E0FDF7A2FF0346FB7102E000BF00E000BFFB7918460837BD4680BD00BF00600040046000407095FF1F5895FF1FED
:4039C00038B500F0E9F820B3124C4200E260000100F0D6F8238AA060E068584300F0D0F8A568E168228A002304E005EBC3046060013380188B42F8D3102000F0C1F8054C3F
:403A00006061282000F0BCF8A37CA06143F00203A37438BD0C96FF1F08B5436813B94FF0FF3008BD984708BDF8B5174C064694F85B10E56D69B960220127204600F02AF8C1
:403A400084F85B70E5653046FFF7E6FF00280EDA18E045B9602000F07DF8E06518B12946602200F017F8E46D002CE0D10AE0074B2660DA6F0132DA670323207184F85B70D0
:403A800084F85A302046F8BD2896FF1F0C96FF1FFFF7CABF70B5034602E003F8011C013A1C4622B103F003050133002DF5D193081ED04FF001354D4308E044F8105C44F876
:403AC0000C5C44F8085C44F8045C043B032BA44604F11004F1DC1C46002603E04CF80650013B0436002BF9D102F003020CEB8404002302E0E154013A0133002AFAD170BD44
:403B000042780178431C42EA01205A789B7842EA002043EA00207047094A0A4BC11C10B5146821F0030118680919814201D9002010BD11609A685868013220189A6010BD05
:403B40009096FF1F1082FF1F08B5FFF7E5FF00B9FEE708BDFFF7E0BF30B1044A9368013B93600BB9024A1360704700BF1082FF1F9096FF1F014B5860196070471082FF1F98
:403B800038B50546FFF7E0FF002104462A46FFF781FF204638BD000010B5084CA37C0BB1002010BD4FF40073238200F009F8A37C012043F00103A37410BD00BF0C96FF1F45
:403BC00080B500AF04484FF48051FFF7D3FF0348FFF75EFF80BD00BF1C82FF1F704E00004FF6FF7070470000014B1868704700BF1C92FF1F00487047904E000000F094BD0E
:403C000037B501220DF10701054600F0A5FD9DF80740FF2C14BF0A240724284601220DF1070100F099FD9DF80700FF2803D1013CE4B2002CF1D13EBD37B50469857828462B
:403C40000DF10701012200F087FD9DF807300BB1002003E0013CF2D14FF0FF303EBD37B54FF0FF3305460C468DF8073006E028460DF10701012200F089FD013C002CF6DCCF
:403C80003EBD000038B5094C2368032B02DD4FF0FF3509E0DDB2013323601420FFF770FF04EB850460608570284638BD1C92FF1F08B5034B4FF400711B68984708BD00BFF3
:403CC0003081FF1F4FEAD20CACEBD103CCF10F0C10B501336044002410F801CB013B4CEA0424F9D101F00703511A02228A40DC40013A04EA020010BD7FB5130E85788DF863
:403D00000530130C01F03F018DF80630130A41F040018DF8073000238DF808208DF804101A4601A911F802C000215B00DBB283EA0C0E1EF0800F18BF83F0090301310829D4
:403D400004D04FEA4C0C5FFA8CFCEEE70132052AE7D15B0043F001038DF809308678C4680122304603A900F0F7FC9DF80C30FF2B04D00CB9FF2009E0013CF1E7284601A9A3
:403D8000062200F003FD2846FFF73AFF04B070BDF7B5847806460F4620460121FFF75FFF204600F00DFC304609210022FFF7A4FF8DF8070028BBF6680546012220460DF1EF
:403DC000060100F0C9FC9DF80630FE2B06D0FC2B04D00135ADB2B542EFD112E00DF1070520463946102200F0B7FC29462046012200F0B2FC29462046012200F0ADFC0025F4
:403E000000E0FF25204600F0EFFB20460121FFF726FF2846FEBD00002DE9F04F9B46494B89B003EB800305925C684A02029103924FF00309029AA578E678039B2846022E91
:403E400008BF13461E4600F0CFFB01212846FFF706FFBBF1010F0CBF4FF0110A4FF0120A284600F0ADFB204651463246FFF744FF002851D1059F5E46A378E268B446049202
:403E80004FF000081E460FE0012230460DF11F01CDF804C000F060FC9DF81F20DDF804C0FE2A05D008F10108049B9845ECD333E0284639464FF40072664600F04DFC022277
:403EC000284607A900F048FC9DF81C30384601939DF81D80FFF7ECFE4FF6FF729042019B0CD048EA0328404508D0BAF1120F13D120460C210022FFF7FFFE0DE0013E02D05B
:403F000007F50077B8E7BAF1120F07D120460C213246FFF7F1FE01E04FF0FF36284600F063FB28460121FFF79AFE3EB1B9F1000F02D009F1FF397DE74FF0FF36304609B0F9
:403F4000BDE8F08F1C92FF1F2DE9F04F99464C4B87B0029203EB80039DF840205D68009103926B78002B40F085804B0201930327009BAC78EE78019A2046022E08BF1A469F
:403F8000164600F031FB01212046FFF768FEB9F1010F0CBF4FF0180A4FF0190A204600F00FFB284651463246FFF7A6FE8DF81700002850D120460121FFF751FE029ECB4683
:403FC000B8463046FFF774FE0DF11707BAF1180F0CBFFE23FC2301228DF817308DF81500030A394620468DF8143000F0CFFB204631464FF4007200F0C9FB0222204605A970
:4040000000F0C4FB01222046394600F0A5FB9DF8173003F01F03052B1CD12846FFF70CFEC0B9039A0AB906F50076BBF1010BC8D1BAF1190F474611D106A96FF00203204667
:4040400001F8013D012200F0A1FB2846FFF7F4FD20B100E047464FF0FF3600E00026204600F0C2FA20460121FFF7F9FD26B10FB1013F7DE74FF0FF36304607B0BDE8F08FC7
:404080001C92FF1F2DE9F04F877887B0044638460D4600F095FA20463A210022FFF72CFE064638B1384600F09FFA38460121FFF7D6FD58E00DF1140804224146384600F0FA
:4040C0004BFB4046FFF71CFD8046384600F08CFA01213846FFF7C3FDB8F1000F28F07F02B8BF4FEA987BD2B240F272634FEA1828B8BF0BF0010B1FFA88F8002A14BF1A4649
:404100000022012111EA080F05D10136F6B24900102E89B2F6D140F27260824233460DD06422724302F5FA6208E011EA080F07D049000133013689B2DBB2F6B20F2EF4D940
:4041400064214B434FF6FE7103F5FA6302EA01014FF6FC72384603EA020200F0B1FA10F0FF0F40F099804FF0FF3092E028467E217F22FFF7A7FD8246EB78DFF82C8103F057
:40418000030203F0780308EBD30358F822101B7C3846594389B200F051FA0646002877D06B7803F00702DB1003F00F0308EB82024344126A93F810800292B8F1000F67D078
:4041C000A978284603911C221A21FFF77BFD0190BAF1000F1FD1502153222846FFF772FD4FF0010909FA00F92F2131222846FFF769FD1FFA89F982463E21284649224FEA3B
:404200005929FFF75FFD0AF1020A09FA0AF9013000FB09F910E0BAF1010F01D0012038E0284630214522FFF74DFD4FEA8029BBF1000F01D00223E37008FB06F2029B03993A
:40424000B2FBF3F2642303FB01225A437343D208DB089A4294BFE260E360FA235E43019BF6089A400C21B24294BF2261266128460D22FFF727FD0546384600F0C9F94FF41B
:40428000007128436070A180C4F80890002000E0FF2007B0BDE8F08FE378A778012B3FF465AF4FF0000A67E7284E0000F0B5857887B004464FF4C871284600F0BFF9B0F58F
:4042C000C87F00F2CC804CF25033E3600026284600F08AF90A212846FFF7C1FC624B93E8030001902846ADF8081000F069F9062201A9284600F04AFA2846FFF781FC074607
:40430000284600F071F901212846FFF7A8FC17F0010F03D10136052ED9D1A0E0284600F04FF9082120464FF4D572FFF7E5FC10F0040F52D0284600F057F9A5784FF4FA66D3
:40434000284600F03DF9002237212046FFF7D4FC28460121FFF783FC292100222046FFF7CBFC0746284600F03FF928460121FFF776FC17B90123E3701EE017F0040F01D163
:40438000013EDDD14FF4FA66284600F019F9012100222046FFF7B0FC0746284600F024F928460121FFF75BFC0FB9E77004E0012F55D1013EE8D152E001AD20462946FFF710
:4043C000E7FC00284BD120462946FFF75BFEC0B2002844D10123237043E00422A07805A900F0BAF9284600F0FFF89DF81730AA2B35D19DF8163003F00F03012B2FD1A57825
:404400004FF4FA66284600F0DBF8002237212046FFF772FC28460121FFF721FC29214FF080422046FFF768FC0746284600F0DCF828460121FFF713FC0FB1013EE2D101AE41
:4044400020463146FFF7A4FC48B90125E57020463146FFF717FEC0B208B9257001E04FF0FF3007B0F0BD00BF684E000010B5084B03EB80035C6823783BB9FFF7BFFB20B118
:404480002046BDE81040FFF711BF4FF0FF3010BD1C92FF1F38B51D46154BA1F57B7103EB80035C68072918D8DFE801F00A17171704041719204600211422FFF7EBFA0CE08A
:4044C000237833B92046FFF7F1FE10B14FF0FF3038BDA3882B81A3686B60002038BD2046FFF73AFB024B00201A68013A1A6038BD1C92FF1F80B582B000AF0346FB71FB79CF
:40450000002B12D1134B1B78002B0DD1114B01221A7000F04BFA9F20012100F061FA00F02BFA00F095F912E011E00A4B1B78002B0CD1084B01221A7000F038FA9F200121A0
:4045400000F04EFA00F018FA00F082F900BF0837BD4680BD3092FF1F80B584B000AF02460B46FA71BB71FB79002B11D1BB79184600F0AAF900BF00F087F9034603F001031B
:40458000DBB2002BF7D000F0B9F90346FB7311E0BB79184600F098F900BF00F075F9034603F00103DBB2002BF7D000F0A7F90346FB7300BFFB7B18461037BD4680BD00BF23
:4045C00080B582B000AF0346FB71FB79002B03D1002000F0CFFA03E0002000F0CBFA00BF0837BD4680BD00BF80B582B000AF0346FB71FB79002B03D1012000F0BBFA03E008
:40460000012000F0B7FA00BF0837BD4680BD00BF80B485B000AF0346FB71FB79002B02D10023FB6002E00023FB6000BFFB6818461437BD465DF8047B704700BF80B584B01D
:4046400000AF02460B46FA71BB80BB88B3F5C87F03D24FF4C873BB8006E0BB88B3F57A6F02D94FF47A63BB80BB885B00FB81FB894FF47A42B2FBF3F39BB2BB60FB79002B65
:404680000CD100F093F9BB689BB2013B9BB21846012100F0A5F900F06FF90CE000F086F9BB689BB2013B9BB21846012100F098F900F062F900BFBB8818461037BD4680BDBB
:4046C00080B485B000AF13460246FA710A46BA807B80FB790033032B0FD8BA8840F6E4439A4207D87A8840F6E3439A4202D90123FB6012E00023FB600FE0BA8840F6E44369
:404700009A4207D87A8840F6E3439A4202D90123FB6001E00023FB6000BFFB6818461437BD465DF8047B704780B584B000AF0346FB71FB791846FFF7DDFEFB790033032B2D
:4047400002D80223FB6002E00223FB6000BFFB6818461037BD4680BD90B585B000AF0346B9607A60FB73BC68631CBB60FB7B1846FF21FFF7F1FE034623707B68013B7B6036
:404780007B68002BEFD11437BD4690BD80B584B000AF0346B9607A60FB73BB685A1CBA601B78FA7B10461946FFF7D6FE7B68013B7B607B68002BF0D11037BD4680BD00BF85
:4047C00080B500AF074B0F221A7000F0A7F800F05BF800F069F8044B00221A70034B00221A7080BD87650040856400408464004080B582B000AFFCF77DFA0346FB71114B65
:40480000104A1278D2B242F02002D2B21A700E4B0D4A1278D2B242F01002D2B21A700B4B0A4A1278D2B242F01002D2B21A70FB791846FCF763FA00F01BF800F01FF8083729
:40484000BD4680BD97650040956400409464004080B500AF054B1B78002B04D1FFF7B0FF024B01221A70FFF7C3FF80BD3192FF1F80B400AFBD465DF8047B704780B400AFBB
:40488000BD465DF8047B704780B483B000AF054B1B78FB71FB7918460C37BD465DF8047B704700BF6564004080B483B000AF054B1B78FB71FB7918460C37BD465DF8047B49
:4048C000704700BF6464004080B483B000AF0346FB7100BF074B1B78DBB203F00403002BF8D0054BFA791A700C37BD465DF8047B704700BF656400404764004080B483B019
:4049000000AF054B1B78FB71FB7918460C37BD465DF8047B704700BF5764004080B582B000AF01E0114B1B78114B1B78DBB203F02003002BF6D1FCF7DDF90346FB710D4BDC
:404940000C4A1278D2B242F00102D2B21A70094B084A1278D2B222F00102D2B21A70FB791846FCF7CBF90837BD4680BD57640040646400409764004080B400AF094B094AE9
:404980001278D2B242F00102D2B21A70064B064A1278D2B242F00102D2B21A70BD465DF8047B7047A2430040B243004080B400AF094B094A1278D2B222F00102D2B21A7011
:4049C000064B064A1278D2B222F00102D2B21A70BD465DF8047B7047A2430040B243004080B584B000AF02460B46FA807B7100F0B1F80346FB7300F0A1F80346BB81FA8806
:404A0000BB899A4200F08780444B1B78DBB203F00103FB72FB7B002B20D1BB89002B02D0FB88002B1AD1BB89002B0BD13C4BFA881A803C4B3B4A1278D2B222F04002D2B200
:404A40001A7068E0374B374A1278D2B242F04002D2B21A70324BFA881A805CE0FB7A002B33D0314B00221A70304B01221A70304B00221A702F4B2F4A1278D2B202F07F026E
:404A8000D2B21A70274B1B78DBB203F00803002B02D0FB88002B18D1274BBA891A80224B07221A7000BF204B1B78DBB203F00103002BF8D1194B194A1278D2B222F0010236
:404AC000D2B21A70184B00221A70144B1B78DBB203F00103002B13D0174BFA881A80124A7B79002B01D0032300E00123137000BF0D4B1B78DBB203F00103002BF8D10AE092
:404B0000074BFA881A80054B044A1278D1B2FA7A0A43D2B21A701037BD4680BDA24300408040004082400040014000401040004014400040084000400240004080B400AF4D
:404B4000034B1B889BB21846BD465DF8047B70478040004080B400AF054B1B78DBB203F00703DBB21846BD465DF8047B704700BF8240004080B485B000AF0346FB710B4B5E
:404B80001B78DBB223F04003FB73084BFA799201D2B202F04002D1B2FA7B0A43D2B21A701437BD465DF8047B704700BF5051004070B50E4B0E4D0024ED1AAD101E46AC4221
:404BC00004D056F8242090470134F8E700F062F9084D094B0024ED1AAD101E46AC4204D056F8242090470134F8E770BDA04E0000A04E0000A84E0000A04E000010B5002310
:404C0000934203D0CC5CC4540133F9E710BD02440346934202D003F8011BFAE7704710B5034632B111F8014B013A03F8014B002CF7D11A44934203D0002103F8011BF9E7EC
:404C400010BD000000000000605100401000C0510040100000000140001080140140800700400140000A004C01400002005001402000000000140140BC08004880000000AC
:404C800030313233343536373839414243444546000000001201000202000008B40432F2010001028001000009024300020101C0320904000001020201030524001001043A
:404CC000240202052406000105240100010705810308000A09040100020A0000040705820240000A0705030240000A00040309042C03430079007000720065007300730010
:404D00002000530065006D00690063006F006E0064007500630074006F007200100355005300420055004100520054003803430044004300200043006F006D006D00750095
:404D40006E00690063006100740069006F006E00200049006E007400650072006600610063006500260343004400430020004400610074006100200049006E0074006500F0
:404D80007200660061006300650000000203000000008103080002000100820240000A000100030240000A00020A000001000000A84C000003000000904D0000000000005F
:404DC00000000000000000000000000000000000A84D000001000000944C000001000000AC4D000001000000D44D000012034D0053004600540031003000300001000000E0
:404E0000280000000001040001000000000000000001435955534200000030303030310000000000000000000A00000064000000E803000010270000000A0C0D0F14191EBF
:404E400023282D32373C41508096980040420F00A086010010270000E8030000640000000A000000010000004000000000950000F53B0000853C0000193E0000493F0000E8
:404E8000954400006D440000FD3B0000E93B00006D6D6300F8B500BFF8BC08BC9E4670474D000000B1050000F8B500BFF8BC08BC9E46704729000000C84E00000881FF1FE8
:404EC000300000006015000000000000807F0000070000000090D00300FA0000400000000000007D00C2010000000800FFFFFF00E13B000000000000000000000000000009
:404F00000000000000000000000000000000000000000000000000000000000000000000000000000000000000000000000000000000000000000000000000000000000071
:404F40000000000000000000000000000000000000000000000000000000000000000000000000000000000000000000000000000000000000000000000000000000000031
:404F800000000000000000000000000000000000000000000000000000000000000000000000000000000000000000000000000000000000000000000000000000000000F1
:404FC00000000000000000000000000000000000000000000000000000000000000000000000000000000000000000000000000000000000000000000000000000000000B1
:020000040003F7
:0200000480007A
:40000000014500400852004004640040016500405400014031010140490201403A0301404004014043050140540601404307014002090140080B0140430C01402F0D01405F
:400040001F1401404B150140451601404417014002190140011B0140164001401441014009420140084301400245014003460140094701400748014006490140084C0140DD
:400080000B4D01400A500140025101407E020002010418C01980205A211629107C40800F810D83388776870F01050302040205040608070308020A040B08110815011706C6
:4000C00019031B041C0C1F082001230829082C042E0234013507360E370838803B203E103F40401449FF4AFF4BFF4F01501854015604580459045A045B045D195F01604043
:40010000624064406540668068806A806C806E809201AE01B001BE01C015C5ECC602C807C9FFCAFFCBFFCD83CE03CF01D018D280D401D604D804DA04DB04DD99DF01E0402F
:40014000E240E440E540E680E880EA80EC80EE8003180A010F801201130217401A051E8020042260280829013081339838243A013B024280434047404D044F815680574067
:4001800058205A865B025D045E805F0161026740681069106A407740824085108740C006C211C489CA05CC0FCE07D019D210D6DFD8810008020306010A02120C14011602C8
:4001C0001901280429012A032D01300F31013F01580459045B045F01860287088A608B018C048F08900892709401970498089A309C07A060A102A218A618A704A903AA4024
:40020000AD03AE07B078B103B207B508B704B902BA02BE04BF51C004C704C9FFCA0FCBFFCC40CD20CEF0CF05D008D418D604D804D904DA04DB04DC01DD11DF01E040E1A816
:40024000E240E3200080012003100408068408010A190C020E90106A171019011A201E80204421802740284929052F093108371038203B48404050385B02608461806A80F2
:400280006F0284808A018C8092019420960297029C099D019F10A220A480A708A820A902AB80AC10C077C23FC44FCA3FCC22CE0ED001D601D80DE204040208020C02120117
:4002C00018021C012001240128012E01300232013E05544058045B045F0180088106821084918502864E870489078B088D0690C09104922F94719502968298A499099A406E
:400300009B069C6CA06CA106A464A608A710A840AA2CAB06AC2CAD01AE40AF0EB031B108B20FB30FB4C0B510B908BA23BF01D409D804D904DB04DF0101A80502064007103E
:4003400008020A090B800D020E1911551555181019011C801D021E181F1B240827902D102E812F223502360437103D453E10440147405F9560126120640168016D80854087
:400380008E10922094089610974A9B409D049E849F12A220A440A508A708A901AC09AE04AF02B120B418B640C037C2FBC4FFCAF0CCE0CEF0D6F0D81EE804EA12EE0801C02E
:4003C000030205C0070409C00B080D7F0F801360179F18011BFF21C023012580291F2B202C012D902F4031FF3401360138A03F01580459045B045F018101850189019340AE
:40040000950797D899089B619D01A101A510A904ADA2AF08B1E0B53FB920BA20BF10C024C103C210C406C5CEC6FDC70BC81FC9FFCAFFCBFFCC22CEF0CF08D004D602D7139E
:40044000D804D904DA04DB04DC01DD10DF01E2C0E440E501E610E711E8C0E901EB11EC40ED01EE40EF010D10174019201D101E0221102201274029102A062B222D402E02F4
:400480002F18324133183609371039053B203C803D154140431A49024A044B045120520C5340590168806A446B046F0170117310808081218A018E0493209555960997CDB0
:4004C00099019B109DAE9E049F02A040A220A30AA528A720AC01B240B310C240C480CAFFCCEFCEF7D00FD204D601E208E020E248A802AE06AF80B340B714E040EA20EC5004
:4005000001140410090C0B110C030D090E0C0F10100A1204151018031A041B0321102208230C2A052C032D1C2E042F023210331F360F3A803E044012410645B047CE4832D1
:4005400049FF4AFF4BFF4EF04F44500C580459045A045B045C115D015F0166C06A406B0286018A028E069205930199029A03A101A501AC06AE01B103B407B902BA20D80402
:40058000D904DC11DF0100800314060207200A040B800C020E0410021502160117101A041B101E201FC020802101234027202B902C022F803002331037243F624602471031
:4005C0004F22540456016E40824088048A108E01C0A7C25AC4D1CA93CC65CEB0D030D220E220E6408202850387FC8DE08F1C9192932595E39601971C98019C01A001A11F9D
:40060000A3E0A401A5E3A71CA801A925ABDAAD48AF25B1FFB403BF01D804D904DB04DC01DF0100800304074008060B240C940E041090114016881704180419801B801F1020
:400640002142230127402A022B0A2C842E842F013102324033103402370439153D403E483F044084410849844A045304584060026B016D808701880489408A40911592C437
:4006800093069580972998C09A029B149C029D049E40A0C0A108A204A30AA780AA01AB08B040C013C2EEC47DCAFDCCCDCE57D007D20CD608D808E62008150A2A1030120CCA
:4006C000130118331A0C1C0F1E302433260C28032A3C2C2A2E15303F3701580459045B045C115F01818082B384018510884C89208AA38C4F8D038E90904291029403957831
:40070000970799809A0C9B309D7F9E40A0FFA30BA408A501A804A94FAB30ACF3AD70AE0CAF0FB104B20FB338B47CB5C0B68CB703B922BAA8D602D724D804D904DB04DC11AE
:40074000DF0101A003A00510080209400B240C800E4411021295131014021520170419A81A081B041C801F01211822102346254029802BA432943301340235083604370947
:4007800038223A54622069556A806E807203811083218A4090229244931095D59689974998809B149D8C9E029F02A080A101A220A30AA508B301C04FC2DFC4EFCA0FCC8FD7
:4007C000CE0FD804E220EA02EE22EA02EE02EA8031203301364037023B405108548055025810614065806601820185408702CCF0CE10D4E0D6E0D880E220E650302052204D
:40080000548058408080874097409C109D809F01A020A52AA640A820AC80CC10D4E0E220E640EA9085029C509F01A52AA640AD80B620E240EA1085209C109F01A528A6401F
:40084000AC40E210EE108B01E0018F04A301E0020B840F4087408A208D02A305C20EE004E20288109C10AE40AF01B108EA40EE40669086108A80D680D880E24008406302F2
:400880009D02A220A305AF44C202D6020102522063089D02A220A304B040C008D404D802EA0100030101080309010A030E02100311011A031B0100EA010F0000001D0000B7
:4008C000001D0000011D0200000008000002080D0000040001020204000D0010031D0000010002000001000201020208000F00000C00031000000002000010406504030053
:40090000020C000E11FFFFFF62A0F0410C000000000008000404040401910001000000000000400200103010001010120000000000000000000000000000000000070700D1
:40094000070000000000000000000000C0000000800040808000800000000000007F7F000000000000C0C000C0000000007F7F007F000000015454001400000000000000F8
:400980000000000000000000000000000000000000000000000000000000000000000000000000000000000000000000000000000000000000000000000000000000000037
:4009C00000000000000000000000000000000000000000000000000000000000000000000000000000000000000000000000000000000000000000000000000000000000F7
:400A000000000000000000000000000000000000000000000000000000000000000000000000000000000000000000000000000000000000000000000000000000000000B6
:400A40000000000000000000000000000000000000000000000000000000000000000000000000000000000000000000000000000000000000000000000000000000000076
:0200000490006A
:0400000000004005B7
:0200000490105A
:04000000BC90ACAF55
:0200000490303A
:0200000055E3C6
:0200000490402A
:4000000000000000000000000000000000000000000000000000000000000000000000000000000000000000000000000000000000000000000000000000000000000000C0
:400040000000000000000000000000000000000000000000000000000000000000000000000000000000000000000000000000000000000000000000000000000000000080
:400080000000000000000000000000000000000000000000000000000000000000000000000000000000000000000000000000000000000000000000000000000000000040
:4000C0000000000000000000000000000000000000000000000000000000000000000000000000000000000000000000000000000000000000000000000000000000000000
:0200000490501A
:0C00000000012E12306900012E33864CE6
:00000001FF